:020000040000fa
:080000000002040000000000f2
:020000040000fa
:04000800fe020000f4
:020000040000fa
:04000c0040030000ad
:020000040000fa
:040010008003000069
:020000040000fa
:040014001e030000c7
:020000040000fa
:040018006003000081
:020000040000fa
:04001c0010040000cc
:020000040000fa
:04002000a003000039
:020000040000fa
:0400240010040000c4
:020000040000fa
:0400280010040000c0
:020000040000fa
:04002c0010040000bc
:020000040000fa
:0400300010040000b8
:020000040000fa
:04003400da030000eb
:020000040000fa
:0400380010040000b0
:020000040000fa
:04003c0010040000ac
:020000040000fa
:0400400010040000a8
:020000040000fa
:0400440010040000a4
:020000040000fa
:0400480010040000a0
:020000040000fa
:04004c00100400009c
:020000040000fa
:040050001004000098
:020000040000fa
:040054001004000094
:020000040000fa
:040058001004000090
:020000040000fa
:04005c00100400008c
:020000040000fa
:040060001004000088
:020000040000fa
:040064001004000084
:020000040000fa
:040068001004000080
:020000040000fa
:04006c00100400007c
:020000040000fa
:040070001004000078
:020000040000fa
:040074001004000074
:020000040000fa
:040078001004000070
:020000040000fa
:04007c00100400006c
:020000040000fa
:040080001004000068
:020000040000fa
:040084001004000064
:020000040000fa
:040088001004000060
:020000040000fa
:04008c00100400005c
:020000040000fa
:040090001004000058
:020000040000fa
:040094001004000054
:020000040000fa
:040098001004000050
:020000040000fa
:04009c00100400004c
:020000040000fa
:0400a0001004000048
:020000040000fa
:0400a4001004000044
:020000040000fa
:0400a8001004000040
:020000040000fa
:0400ac00100400003c
:020000040000fa
:0400b0001004000038
:020000040000fa
:0400b4001004000034
:020000040000fa
:0400b8001004000030
:020000040000fa
:0400bc00100400002c
:020000040000fa
:0400c0001004000028
:020000040000fa
:0400c4001004000024
:020000040000fa
:0400c8001004000020
:020000040000fa
:0400cc00100400001c
:020000040000fa
:0400d0001004000018
:020000040000fa
:0400d4001004000014
:020000040000fa
:0400d8001004000010
:020000040000fa
:0400dc00100400000c
:020000040000fa
:0400e0001004000008
:020000040000fa
:0400e4001004000004
:020000040000fa
:0400e8001004000000
:020000040000fa
:0400ec0010040000fc
:020000040000fa
:0400f00010040000f8
:020000040000fa
:0400f40010040000f4
:020000040000fa
:0400f80010040000f0
:020000040000fa
:0400fc0010040000ec
:020000040000fa
:0401000010040000e7
:020000040000fa
:0401040010040000e3
:020000040000fa
:0401080010040000df
:020000040000fa
:04010c0010040000db
:020000040000fa
:0401100010040000d7
:020000040000fa
:0401140010040000d3
:020000040000fa
:0401180010040000cf
:020000040000fa
:04011c0010040000cb
:020000040000fa
:0401200010040000c7
:020000040000fa
:0401240010040000c3
:020000040000fa
:0401280010040000bf
:020000040000fa
:04012c0010040000bb
:020000040000fa
:0401300010040000b7
:020000040000fa
:0401340010040000b3
:020000040000fa
:0401380010040000af
:020000040000fa
:04013c0010040000ab
:020000040000fa
:0401400010040000a7
:020000040000fa
:0401440010040000a3
:020000040000fa
:04014800100400009f
:020000040000fa
:04014c00100400009b
:020000040000fa
:040150001004000097
:020000040000fa
:040154001004000093
:020000040000fa
:04015800100400008f
:020000040000fa
:04015c00100400008b
:020000040000fa
:040160001004000087
:020000040000fa
:040164001004000083
:020000040000fa
:04016800100400007f
:020000040000fa
:04016c00100400007b
:020000040000fa
:040170001004000077
:020000040000fa
:040174001004000073
:020000040000fa
:04017800100400006f
:020000040000fa
:04017c00100400006b
:020000040000fa
:040180001004000067
:020000040000fa
:040184001004000063
:020000040000fa
:04018800100400005f
:020000040000fa
:04018c00100400005b
:020000040000fa
:040190001004000057
:020000040000fa
:040194001004000053
:020000040000fa
:04019800100400004f
:020000040000fa
:04019c00100400004b
:020000040000fa
:0401a0001004000047
:020000040000fa
:0401a4001004000043
:020000040000fa
:0401a800100400003f
:020000040000fa
:0401ac00100400003b
:020000040000fa
:0401b0001004000037
:020000040000fa
:0401b4001004000033
:020000040000fa
:0401b800100400002f
:020000040000fa
:0401bc00100400002b
:020000040000fa
:0401c0001004000027
:020000040000fa
:0401c4001004000023
:020000040000fa
:0401c800100400001f
:020000040000fa
:0401cc00100400001b
:020000040000fa
:0401d0001004000017
:020000040000fa
:0401d4001004000013
:020000040000fa
:0401d800100400000f
:020000040000fa
:0401dc00100400000b
:020000040000fa
:0401e0001004000007
:020000040000fa
:0401e4001004000003
:020000040000fa
:0401e80010040000ff
:020000040000fa
:0401ec0010040000fb
:020000040000fa
:0401f00010040000f7
:020000040000fa
:0401f40010040000f3
:020000040000fa
:0401f80010040000ef
:020000040000fa
:0401fc0010040000eb
:020000040000fa
:0402000010040000e6
:020000040000fa
:0402040010040000e2
:020000040000fa
:0402080010040000de
:020000040000fa
:04020c0010040000da
:020000040000fa
:0402100010040000d6
:020000040000fa
:0402140010040000d2
:020000040000fa
:0402180010040000ce
:020000040000fa
:04021c0010040000ca
:020000040000fa
:0402200010040000c6
:020000040000fa
:0402240010040000c2
:020000040000fa
:0402280010040000be
:020000040000fa
:04022c0010040000ba
:020000040000fa
:0402300010040000b6
:020000040000fa
:0402340010040000b2
:020000040000fa
:0402380010040000ae
:020000040000fa
:04023c0010040000aa
:020000040000fa
:0402400010040000a6
:020000040000fa
:0402440010040000a2
:020000040000fa
:04024800100400009e
:020000040000fa
:04024c00100400009a
:020000040000fa
:040250001004000096
:020000040000fa
:040254001004000092
:020000040000fa
:04025800100400008e
:020000040000fa
:04025c00100400008a
:020000040000fa
:040260001004000086
:020000040000fa
:040264001004000082
:020000040000fa
:04026800100400007e
:020000040000fa
:04026c00100400007a
:020000040000fa
:040270001004000076
:020000040000fa
:040274001004000072
:020000040000fa
:04027800100400006e
:020000040000fa
:04027c00100400006a
:020000040000fa
:040280001004000066
:020000040000fa
:040284001004000062
:020000040000fa
:04028800100400005e
:020000040000fa
:04028c00100400005a
:020000040000fa
:040290001004000056
:020000040000fa
:040294001004000052
:020000040000fa
:04029800100400004e
:020000040000fa
:04029c00100400004a
:020000040000fa
:0402a0001004000046
:020000040000fa
:0402a4001004000042
:020000040000fa
:0402a800100400003e
:020000040000fa
:0402ac00100400003a
:020000040000fa
:0402b0001004000036
:020000040000fa
:0402b4001004000032
:020000040000fa
:0402b800100400002e
:020000040000fa
:0402bc00100400002a
:020000040000fa
:0402c0001004000026
:020000040000fa
:0402c4001004000022
:020000040000fa
:0402c800100400001e
:020000040000fa
:0402cc00100400001a
:020000040000fa
:0402d0001004000016
:020000040000fa
:0402d4001004000012
:020000040000fa
:0402d800100400000e
:020000040000fa
:0402dc00100400000a
:020000040000fa
:0402e0001004000006
:020000040000fa
:0402e4001004000002
:020000040000fa
:0402e80010040000fe
:020000040000fa
:0402ec0010040000fa
:020000040000fa
:0402f00010040000f6
:020000040000fa
:0402f40010040000f2
:020000040000fa
:0402f80010040000ee
:020000040000fa
:100400000f7921000eff22000e018800000000007d
:10041000000020000000e000020032000001200087
:100420002002880014000700ff0007000000e00021
:1004300003003a0040f721000100200002003700cd
:100440000000200001002000810f70000100320038
:100450000f000700000020000000e0000200320052
:10046000000002000000000008260200000000005a
:100470000040da000000fe00a0be20000000e00006
:1004800002003200002020009001880000000600d9
:10049000a1028800800478000000eb001f003700f4
:1004a000e284440054a0b4009905ba00e2844400f8
:1004b00054a0b4009906ba00e284440054a0b400e9
:1004c0000006eb00476fde00fd07b200ae018800ba
:1004d000636ce10003003a000ad801000000eb0061
:1004e0000e003700606ce10008003a00004deb00a0
:1004f0000a05e800020039003420ec000af0a000f0
:100500008b05e900f9ff3e00040037006168e10057
:10051000010032000086eb000b00070019c7ba008b
:100520000e04e0001905ba0003003a000a00e000da
:10053000dbff3a0000000600fe07b200ae028800b2
:100540008a047800f5ff37000cd0a300e20f4d00bd
:100550001c003b0089027800354dba000a05e8000e
:10056000020039003420ec000af0a0008b05e900fd
:100570000f003200254dba000a05e80002003900dc
:100580003420ec000af0a0008b05e90008003200de
:100590000c00e0000600320015cdba000a05e800a4
:1005a000020039003420ec000af0a0008b05e900bd
:1005b0008984e80054a0b4000b00e000e2ff3a0098
:1005c000000006009902ba00055d78008b05e9007d
:1005d000f7ff3200c82ade00055d78008b05e900d0
:1005e000f3ff32000c00e000f1ff320019ddba0029
:1005f000eeff370000000000000000003600f800a9
:10060000809fbe00829fbe00849fbe00869fbe006a
:100610000000fa00c028a9000000eb00bd1107008f
:100620000080fa004f03be004f02be004f01be0023
:100630004f00be003600f900004006003600f8000a
:10064000809fbe00829fbe00849fbe00869fbe002a
:100650000000fa00b4110700c048a90010002000f3
:10066000ac1107000080fa004f03be004f02be002d
:100670004f01be004f00be003600f90000400600ea
:100680003600f800809fbe00829fbe00849fbe009f
:10069000869fbe000000fa00c068a900200020006c
:1006a0009c1107000080fa004f03be004f02be00fd
:1006b0004f01be004f00be003600f90000400600aa
:1006c0003600f800809fbe00829fbe00849fbe005f
:1006d000869fbe000000fa00c088a90030002000fc
:1006e0008c1107000080fa004f03be004f02be00cd
:1006f0004f01be004f00be003600f900004006006a
:100700003600f800809fbe00829fbe00849fbe001e
:10071000869fbe000000fa00c608a90070002000f5
:100720007c1107000080fa004f03be004f02be009c
:100730004f01be004f00be003600f9000040060029
:100740003600f800809fbe00829fbe00849fbe00de
:10075000869fbe000000fa002146800000102000a5
:10076000008060000000e00003003200c508a9001e
:10077000c000200067110700204680007000600064
:100780000000e00003003200c488a900a00020009f
:100790006011070020468000610060000000e0005a
:1007a00003003200c408a900b0002000591107005e
:1007b000ffff37003600f800809fbe00829fbe001a
:1007c000849fbe00869fbe000000fa00008080006b
:1007d0000000e00002003200008080000000010004
:1007e000f0782100104078008040e800f078210087
:1007f00001487800e078210011c0b300014878007a
:100800000068a9000080fa004f03be004f02be003e
:100810004f01be004f00be003600f9000040060048
:0c0820000040da000000fe0000000500af
:020000040000fa
:10082c0000000000000000000000000000000000bc
:10083c0000000000000000000000000000000000ac
:10084c00000000000000000080800000808000009c
:10085c00808000008080000080800000808000008c
:10086c00808000008080000080800000808000007c
:10087c00000000000000000000000000000000006c
:10088c00000000000000000000000000000000005c
:10089c0000800000808000008080000080800000cc
:1008ac00000000000000000000000000000000003c
:1008bc0000000000008000008080000080800000ac
:1008cc00808000008080000080800000808000001c
:1008dc00808000008080000080800000800000008c
:1008ec0000000000000000000000000000000000fc
:1008fc0080800000808000008080000080800000ec
:10090c0080800000808000008080000080800000db
:10091c0080800000808000008080000000000000cb
:10092c00008000008080000080800000808000003b
:10093c0080800000808000008080000080800000ab
:10094c008080000080800000ffff0000ffff00009f
:10095c000707000007070000070700000707000053
:10096c000707000007070000070700000707000043
:10097c000f1f0000fefe0000fcf000000000000055
:10098c0080e00000f0f800007c1e00000e07000064
:10099c00030300000101000001010000010100003f
:1009ac00010000000a060000070600000ae0000033
:1009bc008000000000ff0000ffff0000ff070000a8
:1009cc0007070000070700000707000007070000e3
:1009dc00070700000707000007070000070f0000cb
:1009ec001fff0000fefc0000f8c00000000000002b
:1009fc0007070000070700000707000007070000b3
:100a0c0007ff0000ffff0000ff07000007070000c2
:100a1c0007070000070700000707000000000000a0
:100a2c0000ff0000ffff0000ff07000007070000a9
:100a3c000707000007070000070700000707000072
:100a4c000707000007070000ffff0000ffff000082
:100a5c000000000000780000787800007878000032
:100a6c0078780000787800007878000078780000ba
:100a7c007c3c00003f1f00000f0300000000000042
:100a8c003fff0000ffff0000f0c0000080000000ee
:100a9c00000000000000000000000000000000004a
:100aac000000000000800000c0f00000fc3f0000cf
:100abc000f00000000ff0000ffff0000ff0000001f
:100acc0000780000787800007878000078780000d2
:100adc0078780000f8f80000f8f80000f8fc000046
:100aec003c3f00001f0f000007000000000000004a
:100afc0000000000000000000000000000000000ea
:100b0c0000ff0000ffff0000ff00000000000000dd
:100b1c0000000000000000000000000000000000c9
:100b2c0000ff0000ffff0000ff000000000f0000ae
:100b3c000f0f00000f0f00000f0f00000f0f000031
:100b4c000f000000000000003f3f00003f3f00008e
:100b5c000000000000000000000000000000000089
:100b6c000000000000000000000000000000000079
:100b7c000000000000000000000000000000000069
:100b8c000000000001030000070f00000f1f000011
:100b9c001e3e00003e3c00003c3c00003c3c000083
:100bac001e1e00000f0f00000703000000000000d5
:100bbc0000000000003f00003f3f00003f0000002d
:100bcc000000000000000000000000000000000019
:100bdc000000000000010000030700000f1f0000d0
:100bec003f3e00003c3800003020000000000000b8
:100bfc0000000000000000000000000000000000e9
:100c0c00003f00003f3f00003f00000000000000dc
:100c1c0000000000000000000000000000000000c8
:100c2c00003f00003f3f00003f3c00003c3c000008
:100c3c003c3c00003c3c00003c3c00003c3c0000c8
:100c4c003c3c00003c3c00000000000000000000a8
:100c5c000000000000000000000000000000000088
:100c6c000000000000000000000000000000000078
:100c7c000000000000000000000000000000000068
:100c8c000000000000000000000000000000000058
:100c9c000000000000000000000000000000000048
:100cac000000000000000000000000000000000038
:100cbc000000000000000000000000000000000028
:100ccc000000000000000000000000000000000018
:100cdc000000000000000000000000000000000008
:100cec0000000000000000000000000000000000f8
:100cfc0000000000000000000000000000000000e8
:100d0c0000000000000000000000000000000000d7
:100d1c0000000000000000000000000000000000c7
:100d2c0000000000000000000000000000000000b7
:100d3c0000000000000000000000000000000000a7
:100d4c00000000000000000000600000e0e0000077
:100d5c0080e00000e0e0000080e00000e0600000c7
:100d6c0000600000e0e0000080e00000e0e0000037
:100d7c0080e00000e060000000600000e0e00000a7
:100d8c0080e00000e0e0000080e00000e060000097
:100d9c000000000000000000e0e00000e040000067
:100dac00e0e00000c000000080c00000e060000037
:100dbc00e0c0000080000000e0e00000e040000027
:100dcc00602000004000000060e00000f0f800002f
:100ddc006000000080c00000e0200000e0e00000a7
:100dec00c0000000000000000000000080c00000f7
:100dfc00e060000060c000008000000080c00000c7
:100e0c00e0600000e0c0000080000000e0e00000b6
:100e1c00e0400000e0e00000c0600000e0e0000006
:100e2c00c00000000000000000600000f0f00000b6
:100e3c00f860000000e00000e0e00000406000000e
:100e4c00204000000000000000800000838f0000a4
:100e5c008f830000808300008f8f00008380000050
:100e6c0080800000838f00008f830000808300004f
:100e7c008f8f00008380000080800000838f000033
:100e8c008f830000808300008f8f00008380000020
:100e9c008e8e00008e800000bfbf0000bf8400005b
:100eac008f8f000087800000838700008f8c0000ec
:100ebc008f870000838000008f8f00008f800000e0
:100ecc008080000080800000808700008f8f0000f1
:100edc008c800000838700008f8d00008d8d0000ba
:100eec00858000008e8e00008e80000083870000bd
:100efc008f8c00008c8600008280000083870000ad
:100f0c008f8c00008f870000838000008f8f000083
:100f1c008f8000008f8f00008f8000008f8f00006b
:100f2c008f8000008e8e00008e800000878f000066
:100f3c008f8c0000808f00008f8f0000808000005d
:100f4c008080000080000000000000000000000015
:100f5c000000000000000000000000000000000085
:100f6c000000000000000000000000000000000075
:100f7c000000000000000000000000000000000065
:100f8c000000000000000000000000000000000055
:100f9c000000000000000000000000000000000045
:100fac000000000000000000000000000000000035
:100fbc000000000000000000000000000000000025
:100fcc000000000000000000000000000000000015
:100fdc000000000000000000000000000000000005
:100fec0000000000000000000000000000000000f5
:100ffc0000000000000000000000000000000000e5
:10100c0000000000000000000000000000000000d4
:10101c0000000000000000000000000000000000c4
:10102c0000000000000000000000000000000000b4
:10103c0000000000000000000000000000000000a4
:10104c000000000000000000417f00004100000093
:10105c004854000054540000200000003854000094
:10106c005454000018000000043e0000442000000e
:10107c000000000014140000141400000000000014
:10108c000000000000000000000000000000000054
:10109c000000000000000000000000000000000044
:1010ac000000000000000000000000000000000034
:1010bc007e110000111100007e00000000000000f5
:1010cc000000000000000000000000000000000014
:1010dc000000000000000000004100007f41000003
:1010ec000048000054540000542000000000000090
:1010fc001414000014140000000000000000000094
:10110c0000000000000000000000000000000000d3
:10111c0000000000000000000000000000000000c3
:10112c000000000000000000000000007e11000024
:10113c00111100007e000000000000000000000003
:10114c000000000000000000000000000000000093
:10115c000000000000000000000000000000000083
:10116c000000000000000000004000004080000073
:10117c0000fc00000404000004040000040400004f
:10118c000404000004040000040400000404000033
:10119c00040400004444000084040000fc0400002b
:1011ac000404000004040000040400000404000013
:1011bc0004040000040400000404000004440000c3
:1011cc004484000004fc000004040000040400003b
:1011dc0004040000040400000404000004040000e3
:1011ec00040400001f110000111100001111000077
:1011fc001111000011110000111100001f0400005a
:10120c0004040000040400000404000004040000b2
:10121c0004040000040400000404000004040000a2
:10122c000404000004040000040400000404000092
:10123c000404000004040000040400000404000082
:10124c00fc00000000000000000000000000000096
:10125c000000000000000000020200007e020000fe
:10126c00020000007c0000000042000062720000de
:10127c007bff00007a720000624200000000000058
:10128c0000020000027e0000020200007454000004
:10129c005c00000042620000727b0000ff7a0000dc
:1012ac007262000042000000000000000202000018
:1012bc007e02000002540000546c0000004200004a
:1012cc00627200007bff00007a7200006242000034
:1012dc000000000000000000000000000000000002
:1012ec0000000000417f00004100000000000000f1
:1012fc001414000014140000000000000000000092
:10130c0000000000000000000000000000000000d1
:10131c0000000000000000000000000000000000c1
:10132c000000000000000000000000007e11000022
:10133c00111100007e0000000000000002040000fb
:10134c00ff0400000200000000000000f800000094
:10135c0000000000705000007020000020200000f1
:10136c002020000020200000202000002020000071
:10137c0070ff000070000000000000000000000082
:10138c000000000000000000000000000000000051
:10139c00000000000000000000000000ff00000042
:1013ac000000000000000000000000000000000031
:1013bc000000000000000000000000000000000021
:1013cc000000000000ff0000000000000000000012
:1013dc00001f000020400000201f00000000000043
:1013ec007c000000745400005c0000000000000051
:1013fc001414000014140000000000000000000091
:10140c0000000000000000000000000000000000d0
:10141c0000000000000000000000000000000000c0
:10142c000000000000000000000000001f20000071
:10143c00402000001f00000000000000f808000021
:10144c000f080000f800000000ba0000aaae00006f
:10145c00000000001c1400001c080000080800001c
:10146c000808000008080000080800000808000030
:10147c0008ff000008080000080800000808000029
:10148c000808000008080000080800000808000010
:10149c000808000008080000081c0000ff1c0000e1
:1014ac000000000000000000000000000000000030
:1014bc000000000000000000000000000000000020
:1014cc000000000000ff0000000000000000000011
:1014dc00001f000020400000201f000000740000ce
:1014ec00545c000000540000546c0000000000002c
:1014fc001414000014140000000000000000000090
:10150c0000000000000000000000000000000000cf
:10151c0000000000000000000000000000000000bf
:10152c000000000000000000000000001f20000070
:10153c00402000001f00000000000000ff00000021
:10154c0000000000ff000000000a00000a0d00006f
:10155c000000000007050000070200000202000066
:10156c00020200000202000002820000820200005f
:10157c0002ff000002020000020200000202000052
:10158c00020200000202000002020000020200003f
:10159c00020200008282000002020000ff02000032
:1015ac00020200000202000002020000020200001f
:1015bc00020200000202000002020000028200008f
:1015cc008202000007ff000007000000000000007e
:1015dc00001f000020400000201f000000540000ed
:1015ec00546c0000000000007c00000000000000b3
:1015fc00141400001414000000000000000000008f
:10160c0000000000000000000000000000000000ce
:10161c0000000000000000000000000000000000be
:10162c000000000000000000000000001f2000006f
:10163c00402000001f000000000000000704000014
:10164c00fc04000007000000000000000000000087
:10165c00000000000000000004040000fc04000076
:10166c0064500000f840000000840000c4e5000055
:10167c00f6ff0000f4e40000c48400000000000049
:10168c000004000004fc000004040000b8a80000e2
:10169c00e800000084c40000e5f60000fff4000040
:1016ac00e4c40000840000000000000004040000fa
:1016bc00fc040000f4a80000e80000000084000016
:1016cc00c4e50000f6ff0000f4e40000c484000050
:1016dc0000000000000000000000000000000000fe
:1016ec0000000000000000000000000000000000ee
:1016fc0000000000000000000000000000000000de
:10170c0000000000000000000000000000000000cd
:10171c0000000000000000000000000000000000bd
:10172c0000000000000000000000000000000000ad
:10173c00000000000000000000000000000000009d
:10174c00ff0000000000000000000000000000008e
:10175c00000000000000000000000000000000007d
:10176c00000000000000000000000000000000006d
:10177c0000ff00008080000080800000808000005e
:10178c00808000008080000080800000808000004d
:10179c00808000008080000080800000ff800000be
:1017ac00808000008080000080800000808000002d
:1017bc00808000008080000080800000808000001d
:1017cc008080000080ff000080800000808000008e
:1017dc0080800000808000008080000080800000fd
:1017ec0080800000808000008080000080800000ed
:1017fc0080800000808000008080000080800000dd
:10180c0080800000808000008080000080800000cc
:10181c0080800000808000008080000080800000bc
:10182c0080800000808000008080000080800000ac
:10183c00808000008080000080800000808000009c
:10184c00ff00000000000000f0f800009898000075
:10185c0098f80000f01f00001f01000001010000bb
:10186c001f1f0000f8f800009898000098f800007e
:10187c00701f00001f190000191900001f0f000035
:10188c00f0f800001818000018380000300f0000a5
:10189c001f180000181800001c0c0000f0f80000c5
:1018ac001818000018380000300f00005f78000096
:1018bc00381800001c0c0000f8f800001818000084
:1018cc0018f80000f01f00001f1800001818000086
:1018dc001f0f0000f8f8000098980000989800007e
:1018ec00181f00001f19000019190000191800001a
:1018fc00f8f800009898000098980000181f000055
:10190c001f0100000101000001000000f0f80000c0
:10191c001898000098b80000b00f00001f180000c5
:10192c00191900001f0f0000f0f900001a9a0000ae
:10193c009ab90000b00f00001f1800001919000020
:10194c001f0f0000f8f800008080000080f80000f5
:10195c00f81f00001f010000010100001f1f000004
:10196c000000000018f80000f8180000000000004b
:10197c00001800001f1f00001800000000000000ed
:10198c0018fb0000fb18000000000000001800000d
:10199c001f1f0000180000000000000000180000cd
:1019ac00f8f80000180c00001c180000181f0000ac
:1019bc000f000000f8f80000c0e0000070380000d4
:1019cc00181f00001f010000030f00001e1800006c
:1019dc00f8f800000000000000000000001f0000ec
:1019ec001f1800001818000018180000f8f8000064
:1019fc00e0c00000e0f80000f81f00001f0000002d
:101a0c00010000001f1f0000f8f80000e0c00000fb
:101a1c0080f80000f81f00001f0000000103000008
:101a2c001f1f0000f0f800001818000018f8000044
:101a3c00f00f00001f180000181800001f0f000006
:101a4c00f0fb00001b1800001bfb0000f00f000057
:101a5c001f180000181800001f0f0000f8f80000f5
:101a6c009898000098f80000f01f00001f0100007b
:101a7c000101000001000000f8f800009898000037
:101a8c0098f80000f01f00001f0100000103000087
:101a9c001f1e0000f0f800009898000098b8000095
:101aac00300c00001d190000191900001f0f000058
:101abc00f0f800009898000098b80000300c000076
:101acc005d790000391900001f0f0000001800009c
:101adc0018f80000f81800001800000000000000c2
:101aec001f1f000000000000f8f8000000000000bc
:101afc0000f80000f80f00001f1800001818000074
:101b0c001f0f0000fbfb00000000000000fb0000aa
:101b1c00fb0f00001f180000181800001f0f00001a
:101b2c00f8f800000000000000f80000f8070000c2
:101b3c000f1c0000181c00000f07000000f800002c
:101b4c00f880000080f80000f800000000010000a0
:101b5c001f1f00000100000018180000189800005a
:101b6c00d8780000381c00001e1b0000191800005b
:101b7c0018180000303800001818000098f8000001
:101b8c0070000000006e00006f01000000000000fb
:101b9c000000000000000000000000000000000039
:101bac0000200000381800000000000000000000b9
:101bbc0000c00000c0000000000000000000000099
:101bcc00181800000000000000f80000f8000000e9
:101bdc0080c00000000000001f1f0000070d000067
:101bec0018000000f8f800000080000000f8000069
:101bfc00f80f00001f1c0000071c00001f0f000046
:101c0c0000800000c0c00000c0f80000f800000018
:101c1c000f1f0000181800001f1f0000008000009c
:101c2c00c0c00000c0c00000000000000f1f00007a
:101c3c00181800001800000000800000c0c0000050
:101c4c00c0c00000800000000f1f0000181800002a
:101c5c001f0f000000800000c0c00000c0c00000ca
:101c6c0080000000ffff0000181800001f0f00008c
:101c7c0000c00000c0c00000c0c000008000000018
:101c8c001f1f0000000000001f1f0000000e0000be
:101c9c001c2a00003846000054620000707e0000d0
:101cac00f0f800001818000098f80000f00f000081
:101cbc001f1a0000191800001f0f00000020000060
:101ccc0030f80000f80000000000000018180000b8
:101cdc001f1f0000181800003038000018180000f2
:101cec0098f80000f01800001c1e00001f1b0000dc
:101cfc00191800003038000098980000d8f800003f
:101d0c00300c00001c190000191900001f0f0000f6
:101d1c0080c00000e0300000f8f800000007000070
:101d2c0007060000061f00001f06000078f80000e0
:101d3c00d8d80000d8d80000980c00001c1800005f
:101d4c00181800001f0f0000f0f800009898000011
:101d5c0098b80000300f00001f190000191900007e
:101d6c001f0f00001818000018980000d878000009
:101d7c00381c00001e0300000100000000000000e1
:101d8c0070f800009898000098f80000700f0000a0
:101d9c001f190000191900001f0f0000f0f80000b7
:101dac009898000098f80000f00c00001d19000035
:101dbc00191900001f0f0000004100007f410000b6
:101dcc00000000007e040000040400007800000005
:101ddc001e200000402000001e0000003c4a0000b5
:101dec004a2c0000000000007e04000002020000eb
:101dfc0004000000023f000042220000003c0000f2
:101e0c004a4a00002c000000007e00000402000082
:101e1c0002040000000000002649000049320000c6
:101e2c00000000003c4a00004a2c000000000000aa
:101e3c007e04000002020000040000001e200000ce
:101e4c00402000001e0000003c4a00004a2c00000c
:101e5c00000000007e0400000202000004000000ec
:101e6c000000000000000000000000000000000066
:101e7c0000000000007f000009090000064000007f
:101e8c00003e000041410000413e000000fe000009
:101e9c00222200001c000000023f00004222000031
:101eac0000400000000000000000000000000000e6
:101ebc000000000000000000000000000000000016
:101ecc000000000000000000000000000000000006
:101edc0000490000310000004932000000520000af
:101eec003100000052320000004900007365000010
:101efc00743d0000000000002020000020200000a5
:101f0c0020200000202000002020000020200000c5
:101f1c0020200000202000002020000020200000b5
:101f2c0000200000202000002020000020200000c5
:101f3c002020000020200000202000002020000095
:101f4c0020200000202000002000000020200000a5
:101f5c00504f00005254000045200000454c00003a
:101f6c00454b0000545200004f4e0000494b0000fe
:101f7c002020000000200000207700007777000070
:101f8c002e7000006f720000746500002e6300005c
:101f9c006f6d00002e740000722000002000000005
:101fac0020500000524f00004645000053590000dd
:101fbc004f4e0000454c0000204700004f4d0000e4
:101fcc00554c000055200000002000005941000035
:101fdc005a4900004c4900004d20000047450000c4
:101fec004c49000053540000495200004d4500007c
:041ffc0020000000c1
:020000040000fa
:102000000800fa00204798003147980022079800fe
:10201000634798000040eb00004f7800160037003f
:102020001e80fb00ae009000008040001040780051
:102030000080fb00e500b900000ab10080007800d4
:10204000e0502100808040001e407800e600b9008a
:10205000004178003e4090000040410001027800bd
:1020600053c0b30012c0b300804078002e409000ef
:102070004a0107001e4fe8006e4090009e40780025
:1020800080cf5000e6ff39000080fa000000060013
:102090000400fa00004f780011479800224798008a
:1020a0002e4090008080fb00a0c2280000804000ed
:1020b0000002780073c0b30022c0b3009e409000bd
:1020c0001e407800350107000080fa00000006007d
:1020d0000800fa002047980031479800220798002e
:1020e00063479800744798002e0090006101b80083
:1020f0006e4090000080fb00c200dd0020762100d1
:10210000008040009000900010007800800f510087
:10211000818f5900750031002e0090008000eb0087
:102120000042eb00ee41900002032100bc080700d2
:102130000040eb00004f78001e80fb0001032100ef
:1021400000804000104078000004e00007003a00e2
:10215000e455210053c0b30012c0b300be4090004c
:102160002e4090000d0107001e4fe8007e409000b9
:102170000004e00059003200160037001e80fb000a
:102180000103210000804000104078000080fb0027
:10219000e500b9000005b00080007800e0502100a3
:1021a000808040001e407800e600b90000417800c1
:1021b0003e409000004041000102780053c0b3004f
:1021c00012c0b300804078002e409000f30007005a
:1021d0001e4fe8007e4090009e40780080cf500067
:1021e000e6ff39001e407800e600b9008040780024
:1021f0003e40900000c04000246b210053c0b3005b
:1022000012c0b300804078002e409000e300070029
:10221000170037001e80fb000103210000804000f2
:10222000104078000080fb00e500b9000005b00018
:1022300080007800e0502100808040001e80fb007c
:102240000000e800004078004301dd003e409000bf
:10225000004041000102780053c0b30012c0b30037
:10226000804078002e409000cc0007001e4fe80010
:102270006e4090009e40780080cf5000e5ff39000e
:102280001a0037001e80fb0001032100008040007f
:10229000104078000080fb00e500b9000005b000a8
:1022a00080007800e0502100808040001e407800cf
:1022b000e600b900004178003e4090000040410037
:1022c0000102780053c0b30012c0b3008040780010
:1022d0002e409000b10007001e4fe8006e409000b5
:1022e0009e40780080cf5000e6ff39000080fa0061
:1022f000000006000800fa002047980031479800c7
:102300002207980063479800744798002e009000b9
:102310006101b8006e4090000080fb00c200dd004b
:10232000207621000080400090009000100078008e
:10233000800f5100818f59007a0031002e009000eb
:102340008000eb000042eb00ee4190000203210010
:10235000330807000040eb00004f78001e80fb00b0
:102360000103210000804000104078000004e000dc
:102370000c003a00c0e42800104078008080fb0088
:1023800060e52800008040000002780073c0b300c0
:1023900022c0b300be4090002e4090007f00070096
:1023a0001e4fe8007e4090000004e000590032001b
:1023b000160037001e80fb00010321000080400052
:1023c000104078000080fb00c1e42800008040003d
:1023d000104078008080fb0060e52800808040008d
:1023e0001e4078004301dd003e4090000040410067
:1023f0000102780073c0b30022c0b30080407800af
:102400002e409000650007001e4fe8007e409000bf
:102410009e40780080cf5000e6ff39001e407800d3
:10242000c300dd003e40900000c04000e4dc280016
:1024300073c0b30022c0b300804078002e409000eb
:1024400056000700180037001e80fb000103210022
:1024500000804000104078000080fb00c1e42800ac
:1024600000804000104078008080fb0060e528007c
:10247000808040001e80fb000000e80000407800e3
:102480004301dd003e409000004041000102780021
:1024900073c0b30022c0b300804078002e4090008b
:1024a0003e0007001e4fe8006e4090009e407800fe
:1024b00080cf5000e4ff39001a0037001e80fb0077
:1024c0000103210000804000104078000080fb00e4
:1024d000c1e4280000804000104078008080fb00ac
:1024e00060e52800808040001e4078004301dd0048
:1024f0003e409000004041000102780073c0b300ec
:1025000022c0b300804078002e40900023000700d6
:102510001e4fe8006e4090009e40780080cf500033
:10252000e6ff39000080fa00000006000200fa0011
:102530000040eb0010479800130037000040eb000c
:10254000004f78000a0037001e81fb001e409000fb
:102550000080fb00610321004311dd000000410009
:10256000008040008040eb00014878001e4fe800ea
:102570001e4078000004e000f3ff3d001e40900084
:102580000040e800104798001e409000e74f5000c0
:10259000eaff36000080fa00000006000a00fa0098
:1025a0004047980051479800624798007347980049
:1025b000440798000040eb001047980026003700c1
:1025c0000040eb00004f78001c0037001e409000d8
:1025d0008080fb007e4090000080fb008088b90076
:1025e000800078001e80fb000080400010079800eb
:1025f0009e80fb005e4090000080fb0080814000d8
:102600001e4090008080fb004e4090000080fb0048
:10261000008040004e0190009e009000810041002b
:102620009140780062032100c319dd000080410061
:1026300000004100014878001e4fe8007e409000f5
:102640009e40780080cf5000e0ff39001e4090008f
:102650000040e800104798009e4090006e409000b7
:1026600080cf5000d6ff39000080fa00000006003d
:102670000800fa0020479800314798004247980028
:102680005347980064479800ae409000014f78008f
:10269000290037006e4090000004e0001300320073
:1026a0009e81fb004e4090000080fb001e81fb00dd
:1026b000ce4090008180fb004311dd00810041008d
:1026c000620321008100410011417800de4090004a
:1026d0008140710062032100c319dd0000804100c8
:1026e0000000410001487800120037009e81fb0085
:1026f0004e4090000080fb001e81fb00ce40900009
:102700008180fb004311dd00810041006203210054
:102710008100410011417800de409000814061005d
:1027200062032100c319dd00008041000000410068
:10273000014878001e4fe8003e4090009e4078001f
:1027400080cf5000d3ff39000080fa00000006005f
:102750000c00fa00404798005147980062479800e3
:102760007347980044079800254f98000040eb00fd
:10277000104798003d0037000040eb00004f780004
:10278000330037001e4090008080fb007e409000a8
:102790000080fb008088b900800078001e80fb006c
:1027a00000804000100798002e4890000004e000d0
:1027b000140032009e80fb005e4090000080fb0011
:1027c000808140001e4090008080fb004e409000c1
:1027d0000080fb00008040004e0190009e009000b1
:1027e000810041009140780081c0ea00620321002d
:1027f000c319dd000080410000004100014878005d
:10280000120037009e80fb005e4090000080fb00bd
:10281000808140001e4090008080fb004e40900070
:102820000080fb00008040004e0190009e00900060
:10283000810041009140780062032100c319dd004e
:102840000080410000004100014878001e4fe80070
:102850007e4090009e40780080cf5000c9ff390034
:102860001e4090000040e800104798009e409000f5
:102870006e40900080cf5000bfff39000080fa000a
:10288000000006000c00fa004047980051479800ed
:10289000624798007347980044079800254f9800b6
:1028a0000040eb0010479800430037000040eb0069
:1028b000004f7800390037001e4090008080fb00f8
:1028c0007e4090000080fb008088b9008000780086
:1028d0001e80fb0000804000100798002e489000ea
:1028e0000004e000170032007e4090008080fb0072
:1028f0001e80fb00808050005e4090000080fb0046
:10290000808140001e4090008080fb004e4090007f
:102910000080fb00008040004e0190009e0090006f
:10292000810041009140780081c0ea0062032100eb
:10293000c319dd000080410000004100014878001b
:10294000150037007e4090008080fb001e80fb0059
:10295000808050005e4090000080fb00808140003d
:102960001e4090008080fb004e4090000080fb00e5
:10297000008040004e0190009e00900081004100c8
:102980009140780062032100c319dd0000804100fe
:1029900000004100014878001e4fe8007e40900092
:1029a0009e40780080cf5000c3ff39001e40900049
:1029b0000040e800104798009e4090006e40900054
:1029c00080cf5000b9ff39000080fa0000000600f7
:1029d0000000fa00d0808000e70f500042003e0067
:1029e000c1808000f0032000808f50001e003e0058
:1029f0001cd0bf000004e0000f003200c080800047
:102a00000104200080804000d0808000c308dd00e9
:102a100000804000610321000080400010407800e9
:102a2000e5000700c08080000000e800c08088004a
:102a30001c70ef003a003700c1808000d080800019
:102a4000c308dd00008040006103210000804000d9
:102a5000104078000080fb001e01070010c0b3008a
:102a60001cf0b7002e003700c18080001004200049
:102a7000808f50000f003a001cd0bf000004e0001f
:102a800007003200000420009e010700c080800083
:102a90000000e800c08088001c70ef0020003700b4
:102aa000000420005101070010c0b3001cf0b70063
:102ab0001b0037001830ef00d08080000000e800d5
:102ac000d0808800d1808000800b20000100700041
:102ad00046010700d1808000800b200001007000bb
:102ae000880107000e003700d0808000e80f5000fa
:102af00008003a00800b20003c010700800b2000fa
:102b000080010700d08080000000e800d0808800ad
:102b1000030037001830ef001a30ef001670ef0096
:102b20000080fa00000006000200fa00004f780062
:102b30001670ef001a30ef00220037008000eb0023
:102b400000042000b501070011002000000420004f
:102b5000b2010700d1808000800b200001007000ce
:102b60008000eb00ad010700d1808000800b2000c9
:102b70000100700011002000a80107001830ef00cc
:102b8000090037001e80fb008000eb003d000700bd
:102b90001e80fb00110020003a000700c08080006a
:102ba0000000e800c0808800c1808000f0032000a1
:102bb000808f5000f3ff3600d08080000000e800d6
:102bc000d0808800d0808000e70f5000dbff360007
:102bd0000080fa00000006000000fa001670ef0006
:102be00015eea900340ea90014eea80024aea90029
:102bf000248ea9008000eb00000c20008701070054
:102c000011002000000c2000840107008000eb0070
:102c100000042000810107001100200000042000b2
:102c20007e0107008000eb00800b20007b01070085
:102c300011002000800b2000780107008000eb00cd
:102c4000f00320007501070011002000f0032000b0
:102c50007201070000042000e4000700800b200040
:102c6000e20007000004200026010700800b20007e
:102c7000240107001830ef001a30ef000080fa003e
:102c8000000006000400fa00000f78001107980009
:102c9000356ea8001e0090000000e0000200320027
:102ca00024aea80001003700248ea8001e00780082
:102cb00061006000004078000004e0000200320083
:102cc000240ea80001003700240ea9009e00780001
:102cd000628060000000e00002003200246ea80064
:102ce00001003700246ea9009e0078006480600017
:102cf0000000e0000200320034cea80001003700de
:102d000034cea9009e007800688060000000e000da
:102d10000200320035eea8000100370035eea900b0
:102d20009e007800708060000000e0000200320029
:102d3000348ea80001003700348ea9000002200064
:102d40001e0060000000e0000200320034aea80067
:102d50000100370034aea900000420001e0060000e
:102d60000000e0000200320024cea800010037007d
:102d700024cea900000820001e0060000000e00032
:102d80000200320025aea8000100370025aea900e0
:102d9000100020005f07070015eea80010002000bb
:102da0005c07070015eea90024aea900248ea90037
:102db0000080fa00000006000200fa00004f7800d0
:102dc000356ea80024aea8001e80fb0061006000e4
:102dd000004078000004e00002003200240ea80049
:102de00001003700240ea9001e80fb006200600075
:102df0000000e00002003200246ea800010037004d
:102e0000246ea9001e80fb00640060000000e0004a
:102e10000200320034cea8000100370034cea900f1
:102e20001e80fb00680060000000e000020032002d
:102e300035eea8000100370035eea9001e80fb002a
:102e4000700060000000e00002003200348ea80034
:102e500001003700348ea9009e80fb000002200094
:102e6000008060000000e0000200320034aea800e4
:102e70000100370034aea9009e80fb000004200052
:102e8000008060000000e0000200320024cea800b4
:102e90000100370024cea9001e4078000004e000a5
:102ea00002003d0025aea8000100370025aea900b4
:102eb000100020001707070015eea80010002000e2
:102ec0001407070015eea90024aea9000080fa003f
:102ed000000006000200fa00000f7800356ea8001e
:102ee000248ea8001e007800610060000040780079
:102ef0000004e00002003200240ea80001003700a8
:102f0000240ea9009e007800628060000000e000ae
:102f100002003200246ea80001003700246ea900d0
:102f20009e007800648060000000e0000200320033
:102f300034cea8000100370034cea9009e007800ee
:102f4000688060000000e0000200320035eea8005a
:102f50000100370035eea9009e0078007080600007
:102f60000000e00002003200348ea80001003700ab
:102f7000348ea900000220001e0060000000e00066
:102f80000200320034aea8000100370034aea900c0
:102f9000000420001e0060000000e000020032007b
:102fa00024cea8000100370024cea900000820008c
:102fb0001e0060000000e0000200320025aea80004
:102fc0000100370025aea90010002000d10607003f
:102fd00015eea80010002000ce06070015eea9008f
:102fe000248ea9000080fa00000006000200fa000a
:102ff000000f7800356ea90024aea8001e007800ee
:1030000061006000004078000004e000020032002f
:10301000240ea80001003700240ea9009e007800ad
:10302000628060000000e00002003200246ea80010
:1030300001003700246ea9009e00780064806000c3
:103040000000e0000200320034cea800010037008a
:1030500034cea9009e007800688060000000e00087
:103060000200320035eea8000100370035eea9005d
:103070009e007800708060000000e00002003200d6
:10308000348ea80001003700348ea9000002200011
:103090001e0060000000e0000200320034aea80014
:1030a0000100370034aea900000420001e006000bb
:1030b0000000e0000200320024cea800010037002a
:1030c00024cea900000820001e0060000000e000df
:1030d0000200320025aea8000100370025aea9008d
:1030e000100020008b06070015eea800100020003d
:1030f0008806070015eea90024aea9000080fa009a
:10310000000006000200fa00000f7800356ea900ea
:10311000248ea8001e007800610060000040780046
:103120000004e00002003200240ea8000100370075
:10313000240ea9009e007800628060000000e0007c
:1031400002003200246ea80001003700246ea9009e
:103150009e007800648060000000e0000200320001
:1031600034cea8000100370034cea9009e007800bc
:10317000688060000000e0000200320035eea80028
:103180000100370035eea9009e00780070806000d5
:103190000000e00002003200348ea8000100370079
:1031a000348ea900000220001e0060000000e00034
:1031b0000200320034aea8000100370034aea9008e
:1031c000000420001e0060000000e0000200320049
:1031d00024cea8000100370024cea900000820005a
:1031e0001e0060000000e0000200320025aea800d2
:1031f0000100370025aea900100020004506070099
:1032000015eea800100020004206070015eea900e8
:10321000248ea9000080fa00000006000400fa00d5
:10322000000f780011079800356ea9001e0090006d
:103230000000e0000200320024aea80001003700c8
:10324000248ea8001e007800610060000040780015
:103250000004e00002003200240ea8000100370044
:10326000240ea9009e007800628060000000e0004b
:1032700002003200246ea80001003700246ea9006d
:103280009e007800648060000000e00002003200d0
:1032900034cea8000100370034cea9009e0078008b
:1032a000688060000000e0000200320035eea800f7
:1032b0000100370035eea9009e00780070806000a4
:1032c0000000e00002003200348ea8000100370048
:1032d000348ea900000220001e0060000000e00003
:1032e0000200320034aea8000100370034aea9005d
:1032f000000420001e0060000000e0000200320018
:1033000024cea8000100370024cea9000008200028
:103310001e0060000000e0000200320025aea800a0
:103320000100370025aea90020002000f9050700a4
:1033300015eea80030002000f605070015eea900e4
:1033400024aea900248ea9000080fa000000060027
:103350000000fa0022d0bf000040e80022f0b700d1
:1033600022d0bf000080fb006101b9000080eb00ab
:103370008080eb00020040008380480002042000af
:1033800003002000820f5000838f5800cb013e00c5
:1033900000060100400037004300370047003700b7
:1033a00048003700490037004d0037004e00370015
:1033b000c2013700c1013700c0013700bf0137002b
:1033c000be013700bd013700bc013700bb0137002b
:1033d000ba013700b9013700b8013700b70137002b
:1033e000b6013700b5013700b4013700b30137002b
:1033f000b2013700b1013700b0013700af0137002b
:10340000ae013700ad013700ac013700ab0137002a
:10341000aa013700a9013700a8013700a70137002a
:10342000a6013700a5013700a4013700a30137002a
:103430002f0037003800370055003700760037007e
:103440007e0037009a003700bb003700c30037000a
:10345000df00370000013700080137002401370082
:10346000450137009501370094013700930137007b
:103470009201370091013700900137008f0137002a
:1034800040013700610137006201370063013700f6
:103490008401370085013700150ea900340ea900fc
:1034a000356ea90085013700348ea90034aea9001d
:1034b00024cea90025aea80080013700150ea80073
:1034c0007e013700150ea9007c013700348ea9005b
:1034d00034aea90024cea90025aea900770137009b
:1034e000150ea80075013700150ea90073013700ed
:1034f000356ea800e0732100104078000004e00061
:103500000300320022d0bf000040e80022f0b700e4
:103510002370ef006901370023d0bf00f34f500044
:1035200016003e0023d0bf000080fb00e16e2100aa
:1035300000804000104078001ff0b70023d0bf008b
:103540000040e80023f0b7001fd0bf000080fb0060
:103550004400de000040780020f0b7001fd0bf001c
:103560006f40600021f0b700b0c3b30022f0b70095
:1035700080c2b30024f0b700500137002370ef0081
:1035800022d0bf000040e80022f0b7004b01370016
:1035900023d0bf00f34f50001d003e00e073210018
:1035a000104078008080fb0023d0bf000080fb002b
:1035b000f509b900820078000080400021f8280059
:1035c00000804000104078001ff0b70023d0bf00fb
:1035d0000040e80023f0b7001fd0bf000080fb00d0
:1035e0004400de000040780020f0b7001fd0bf008c
:1035f0006f40600021f0b70022d0bf000040e9001a
:1036000024f0b700b0c3b30022f0b7002b0137009d
:103610002370ef002901370000742100104078006a
:103620000004e0000300320022d0bf000040e800a8
:1036300022f0b7002370ef002001370023d0bf0035
:10364000f34f500018003e0023d0bf000080fb0065
:1036500074004000e16e21000080400010407800be
:103660001ff0b70023d0bf000040e80023f0b700f0
:103670001fd0bf000080fb004400de000040780047
:1036800020f0b7001fd0bf006f40600021f0b700ee
:1036900022d0bf000040e90024f0b700b0c3b3005f
:1036a00022f0b700050137002370ef000301370057
:1036b00023d0bf00f34f50001d003e0000742100d6
:1036c000104078008080fb0023d0bf000080fb000a
:1036d000f509b900820078000080400021f8280038
:1036e00000804000104078001ff0b70023d0bf00da
:1036f0000040e80023f0b7001fd0bf000080fb00af
:103700004400de000040780020f0b7001fd0bf006a
:103710006f40600021f0b70022d0bf000040e900f8
:1037200024f0b700b0c3b30022f0b700e3003700c5
:103730002370ef00e1003700f073210010407800a3
:103740000004e0000300320022d0bf000040e80087
:1037500022f0b7002370ef00d800370023d0bf005d
:10376000f34f500018003e0023d0bf000080fb0044
:103770008002b000e16e210000804000104078001f
:103780001ff0b70023d0bf000040e80023f0b700cf
:103790001fd0bf000080fb004400de000040780026
:1037a00020f0b7001fd0bf006f40600021f0b700cd
:1037b00022d0bf000040e90024f0b700b0c3b3003e
:1037c00022f0b700bd0037002370ef00bb003700c8
:1037d00023d0bf00f34f50001d003e00f0732100c6
:1037e000104078008080fb0023d0bf000080fb00e9
:1037f000f509b900820078000080400021f8280017
:1038000000804000104078001ff0b70023d0bf00b8
:103810000040e80023f0b7001fd0bf000080fb008d
:103820004400de000040780020f0b7001fd0bf0049
:103830006f40600021f0b70022d0bf000040e900d7
:1038400024f0b700b0c3b30022f0b7009b003700ec
:103850002370ef00990037001074210010407800a9
:103860000004e0000300320022d0bf000040e80066
:1038700022f0b7002370ef009000370023d0bf0084
:10388000f34f500018003e0023d0bf000080fb0023
:10389000c003b000e16e21000080400010407800bd
:1038a0001ff0b70023d0bf000040e80023f0b700ae
:1038b0001fd0bf000080fb004400de000040780005
:1038c00020f0b7001fd0bf006f40600021f0b700ac
:1038d00022d0bf000040e90024f0b700b0c3b3001d
:1038e00022f0b700750037002370ef007300370037
:1038f00023d0bf00f34f50001d003e001074210084
:10390000104078008080fb0023d0bf000080fb00c7
:10391000f509b900820078000080400021f82800f5
:1039200000804000104078001ff0b70023d0bf0097
:103930000040e80023f0b7001fd0bf000080fb006c
:103940004400de000040780020f0b7001fd0bf0028
:103950006f40600021f0b70022d0bf000040e900b6
:1039600024f0b700b0c3b30022f0b7005300370013
:103970002370ef00510037001e70ef002270ef003f
:103980004e00370020d0bf000080fb0061006000c7
:10399000004078000004e00002003200348ea800ed
:1039a00001003700348ea90020d0bf000080fb004a
:1039b000620060000000e0000200320034aea800a7
:1039c0000100370034aea90020d0bf000080fb000a
:1039d000640060000000e0000200320024cea80075
:1039e0000100370024cea90020d0bf000080fb00da
:1039f000680060000000e0000200320025aea80070
:103a00002e00370025aea9002c003700150ea800a7
:103a10002a003700150ea9002800370021d0bf006a
:103a20000080fb0061006000004078000004e000be
:103a300002003200348ea80001003700348ea90045
:103a400021d0bf000080fb00620060000000e000a9
:103a50000200320034aea8000100370034aea900e5
:103a600021d0bf000080fb00640060000000e00087
:103a70000200320024cea8000100370024cea900a5
:103a800021d0bf000080fb00680060000000e00063
:103a90000200320025aea8000800370025aea900bc
:103aa00006003700150ea80004003700150ea90007
:103ab00024d0bf0022f0b700000000000080fa0010
:103ac000000006000000fa00356ea900340ea900bf
:103ad000150ea900f0002000fd03070030c0b30060
:103ae0004700070050002000f903070030c0b30072
:103af0004300070050002000f503070030c0b3006a
:103b00003f00070050002000f103070020c0b30071
:103b10003b00070050002000ed03070081c2b30006
:103b20000040eb001b00070081c0b3000040eb0029
:103b30001800070011c0b3000040eb00150007009b
:103b400061c0b3000040eb0012000700200320001a
:103b5000df03070081c2b3000040eb000d00070047
:103b6000c1c0b3000040eb000a00070061c0b30011
:103b70000040eb000700070011c0b3000040eb005d
:103b80000400070050002000d10307000080fa0065
:103b9000000006000200fa00004f7800114798006c
:103ba000150ea900340ea90030002000c80307003c
:103bb0001e4078000004e00002003200356ea800cc
:103bc00001003700356ea90030002000c003070057
:103bd0001e4090000080fb004400de0000407800a2
:103be0000700070050002000ca0307001e40900095
:103bf0006f406000020007000080fa00000006002d
:103c00000200fa00004f7800340ea9001e4178002f
:103c1000f1012100824878001fd0bf000080fb0026
:103c200061006000004078000004e0000200320003
:103c3000348ea80001003700348ea9001fd0bf00c9
:103c40000080fb00620060000000e0000200320023
:103c500034aea8000100370034aea9001fd0bf0069
:103c60000080fb00640060000000e0000200320001
:103c700024cea8000100370024cea9001fd0bf0029
:103c80000080fb00680060000000e00002003200dd
:103c900025aea8000100370025aea9005000200085
:103ca0009c030700150ea800500020009903070090
:103cb000150ea90050002000960307000080fa00ae
:103cc000000006000800fa002047980031479800dd
:103cd00042479800330798000040eb00004f7800ff
:103ce0002e4090000080fb00e20f500011003200d7
:103cf000e20f500003003c00e10f500006003200cc
:103d000021003700e30f500011003200e40f500093
:103d1000160032001c003700be40900000c8b300ff
:103d200000c04000804078000040eb0099ff070091
:103d300015003700be40900000ccb30000c040002a
:103d4000804078000040eb0092ff07000e00370033
:103d5000be40900040c9b30000c0400080407800e1
:103d60000040eb008bff070007003700be409000cb
:103d700040cdb30000c04000804078000040eb0020
:103d800084ff0700000000003e0090008000eb0070
:103d900004c3b300ce41900002032100a00107003c
:103da0000040eb00004f7800080037001e80fb0049
:103db000010321000080400010407800804078001e
:103dc00010c0b30073ff07001e4fe8001e407800cc
:103dd000e34f5000f5ff36000080fa0000000600b7
:103de0000800fa00204798003147980042479800a1
:103df000330798000040eb00004f78002e40900001
:103e00000080fb00e20f500011003200e20f500072
:103e100003003c00e10f5000060032002100370093
:103e2000e30f500011003200e40f50001600320082
:103e30001c003700be40900000c8b30000c0400026
:103e4000804078000040eb0052ff0700150037006b
:103e5000be40900000ccb30000c04000804078001d
:103e60000040eb004bff07000e003700be40900003
:103e700040c9b30000c04000804078000040eb0023
:103e800044ff070007003700be40900040cdb3005c
:103e900000c04000804078000040eb003dff07007c
:103ea000000000000040eb00004f780008003700e1
:103eb0001e80fb00be009000008040001040780093
:103ec0008040780010c0b30032ff07001e4fe800aa
:103ed0004e4090009e40780080cf5000f4ff3900a3
:083ee0000080fa00000006005a
:020000040000fa
:103ee8004217000020000000800000002a10000097
:103ef8000200000082000000ffff00008e17000093
:103f08000200000080000000001000001600000001
:103f1800800000002c100000020000008200000059
:103f280001000000821700000c0000008200000061
:103f3800425553005241200053414800494e000069
:103f48002610000004000000800000003614000065
:103f5800b80200008200000000000000000000001d
:103f68000000f8008484840084fc00000000000045
:103f78000000000000000000000000000000040035
:103f88000202040004ffff000408100010080400e7
:103f98008080000000000000000000000000000019
:103fa80000100800070101000202040000060f00cb
:103fb80019190f00060000000000000000000000b2
:103fc80000007e0042c2c200427e00000080400025
:103fd80000808000000000000000000000000800d1
:103fe80008040200c27f7f00c2010100010106002f
:103ff8000f1919000f060000000000000000000063
:104008000002810081808000818604000000000099
:104018008080000000000000000000000000000098
:1040280080809f0090f0f000909f800080860f00b5
:1040380019190f0006000000000000000000000031
:1040480080e02000203f3f002020e00080000000aa
:104058000000000000000000000000000000000058
:104068000000000000000000000000000000000048
:104078000000000000000000000000000000000038
:10408800005f00000000070000070000147f140014
:104098007f1424002a7f2a00122313000864620078
:1040a80036495500225000000503000000001c009e
:1040b80022410000004122001c0008002a1c2a009e
:1040c800080808003e0808000050300000000800fa
:1040d80008080800080060006000000020100800c0
:1040e80004023e00514945003e0042007f40000066
:1040f800426151004946210041454b0031181400e6
:10410800127f10002745450045393c004a494900bf
:104118003001710009050300364949004936060097
:10412800494929001e0036003600000000563600b6
:104138000000000008142200411414001414140094
:10414800412214000800020001510900063249000a
:1041580079413e007e111100117e7f0049494900d6
:10416800363e4100414122007f414100221c7f0030
:1041780049494900417f0900090101003e414100c8
:1041880051327f00080808007f0041007f4100008d
:10419800204041003f017f0008142200417f400079
:1041a800404040007f020400027f7f0004081000a6
:1041b8007f3e410041413e007f09090009063e005b
:1041c800415121005e7f09001929460046494900ee
:1041d80049310100017f0100013f400040403f009c
:1041e8001f204000201f7f00201820007f6314003c
:1041f8000814630003047800040361005149450072
:10420800430000007f4141000204080010204100e3
:10421800417f000000040200010204004040400009
:10422800404000000102040000205400545478006b
:104238007f4844004438380044444400203844004f
:1042480044487f0038545400541808007e0901007f
:104258000208140054543c007f080400047800004d
:10426800447d400000204000443d0000007f1000d5
:1042780028440000417f4000007c040018047800b6
:104288007c0804000478380044444400387c140056
:104298001414080008141400187c7c000804040096
:1042a8000848540054542000043f440040203c0077
:1042b800404020007c1c200040201c003c40300076
:1042c800403c440028102800440c500050503c004a
:1042d800446454004c4400000836410000000000cb
:1042e8007f0000000041360008000800082a1c0072
:1042f80008081c002a080800301000000604000006
:104308008000000016100000080000008000000077
:104318006217000020000000820000000100000079
:10432800000a00000000640000000000e80300002c
:10433800001027000000a0008601000040420f0086
:1043480000809600980000002e1000000200000077
:1043580080000000ee1600005400000080000000fd
:104368001e1000000800000080000000000000008f
:020000040000fa
:104378000600fa0010079800414798005247980035
:104388000000eb00000f78004e4090002ef0b700c0
:104398001c0037002ed0bf00ce40900000c0500057
:1043a8002ff0b7002ed0bf000040e9002ef0b70074
:1043b8002ed0bf000000fb009e009000008040004f
:1043c800104078008080fb005e4090000080fb0079
:1043d80000805000cf80de00000178002ed0bf00a2
:1043e8000000fb00c200dd002076210000804000b4
:1043f8009000900010007800000078008090b900cc
:104408001e0f40002ed0bf000004e000e1ff3a007c
:104418000080fa00000006000800fa00008fbe00c5
:104428002207980063479800744798006e409000f0
:104438002ef0b7002a0037002ed0bf00ee409000c3
:1044480000c050002ff0b7002ed0bf000040e90098
:104458002ef0b7002fd0bf000080fb00ae00900008
:1044680000804000fe4090000148780010003700ae
:104478002fd0bf000080fb00ae00900000804000fd
:10448800904078008140e800014878002ed0bf00b5
:104498000000fb00c200dd00207621000080400003
:1044a80090009000100078001e1f10001e97180042
:1044b8002ed0bf000000fb00c200dd0020762100e6
:1044c80000804000900090001000780061005000cb
:1044d800e0805800be0f5000ae8f5800e4ff39004e
:1044e8002ed0bf000004e000d3ff3a000080fa009d
:1044f800000006000800fa00008fbe00220798009e
:1045080063479800744798002e70ef000900370041
:104518002ed0bf000000fb00ae00900000804000dd
:1045280001c3b300014878002ed0bf000040e80066
:104538002ef0b7002ed0bf008000fb006e40900028
:104548000080fb00808f5000f1ff340032003700fc
:104558002ed0bf00ee40900000c050002ff0b700f2
:104568002ed0bf000040e9002ef0b7001e00370033
:104578002ed0bf000000fb00c200dd002076210025
:104588000080400090009000100078001e1f10006e
:104598001e971800f1022100914078007e4090009b
:1045a80080cf5000080031002fd0bf000080fb00f2
:1045b800ae00900000804000904078008140e80004
:1045c80001487800080037002fd0bf000080fb00aa
:1045d8000000e800ae0090000080400090407800a5
:1045e8008140e800014878002ed0bf000000fb00a1
:1045f800c200dd002076210000804000900090007d
:104608001000780061005000e0805800be0f500094
:10461800ae8f5800d6ff39002ed0bf000004e0004e
:10462800cbff3a007e4090000080fb00ae00900077
:1046380000804000e1c2b300014878000080fa0021
:10464800000006000000fa00003a80000080fa002e
:10465800000006000200fa00faff0700000f7800c9
:104668001e007800240007000004e0000200320069
:1046780000002800710007001e0078002a000700cb
:104688000004e00002003200000024006b00070074
:104698001e007800320007000004e000020032002b
:1046a80000202000650007001e0078003a0007007f
:1046b8000004e00002003200000820005f0007004c
:1046c8001e007800420007000004e00002003200eb
:1046d80000042000590007001e0078004a00070067
:1046e8000004e0000200320000012000530007002f
:1046f8000080fa00000006000400fa001007980085
:104708000040eb00004f78001e0090000000e00021
:1047180002003d0010c0b300004f78001e40780032
:104728000080fa00000006000400fa001007980054
:104738000040eb00004f78009e009000000024002d
:10474800008060000000e0000200320010c0b300ea
:10475800004f78001e4078000080fa000000060034
:104768000400fa00100798000040eb00004f7800a2
:104778009e00900000202000008060000000e00003
:104788000200320010c0b300004f78001e407800cd
:104798000080fa00000006000400fa0010079800e4
:1047a8000040eb00004f78009e00900000082000b9
:1047b800008060000000e0000200320010c0b3007a
:1047c800004f78001e4078000080fa0000000600c4
:1047d8000400fa00100798000040eb00004f780032
:1047e8009e00900000042000008060000000e000af
:1047f8000200320010c0b300004f78001e4078005d
:104808000080fa00000006000400fa001007980073
:104818000040eb00004f78001e0090007000600020
:104828000000e0000200320010c0b300004f780022
:104838001e4078000080fa00000006000200fa001e
:10484800000f78009e80ea00003a80000080600037
:10485800003a88000080fa00000006000000fa0014
:104868004027ef000080fa00000006000000fa0070
:104878000021ef00309c200010088800000028006c
:1048880020088800008080000000e00002003a0054
:1048980020492200280007000068a9002068a80015
:1048a800e07821008040eb00014878000080fa00a1
:1048b800000006000200fa00000f78009e00780051
:1048c80011088800e07821008040eb00014878005a
:1048d8000080fa00000006000000fa0010088000be
:1048e8000080fa00000006000200fa00000f7800bd
:1048f8009e00780001088800e07821008040eb00e5
:10490800014878000080fa00000006000000fa0064
:10491800000880000080fa00000006000000fa008d
:104928001ed0bf000004e0000100320086fa070034
:104938000080fa00000006000200fa00000f78006c
:104948002068a9009e007800018088002068a800df
:104958000080fa00000006000000fa00e07821005c
:104968008040eb00014878002068a80005e1a80015
:104978000080fa00000006000000fa0005e1a90026
:104988002068a9000080fa00000006000200fa0072
:10499800e0782100104f78001e4078000004e00005
:1049a80003003200e07821008040eb0001487800e5
:1049b8001e4078000080fa00000006000000fa009f
:1049c800f0782100104078000080fb000080fa0099
:1049d800000006000000fa00f07821008040eb009b
:1049e800014878000080fa00000006000000fa0084
:1049f80070152300203a88004827ef004e27ef0063
:104a0800600c2000303a880000742200803a880048
:104a18004c27ef006027ef006227ef006427ef00c4
:104a28006a27ef006c27ef006e27ef0032002000a6
:104a380080072000a10920003374200080497800f5
:104a48008149780082497800120020006004200023
:104a5800710520002374200080497800814978007e
:104a68008249780000000000103a80006100600070
:104a78000000e000fcff3a0000000000113a80004e
:104a880000022000008060000000e000fbff320010
:104a98000080fa00000006000000fa00803a80005a
:104aa8004e00de00614060000080fb0000f0a700bf
:104ab8000000ea000000ea004f00de000040780035
:104ac8000080fa00000006000200fa00000f7800db
:104ad80003003700801a2600010020007d0007002f
:104ae8001e00780000f0a7000000ea000000ea00bd
:104af8004f00de00004078001e0fe9000004e000cf
:104b0800f4ff3a000080fa00000006000200fa00f4
:104b1800000f780005003700003220000100200057
:104b28006c00070001fe2f001e8f40001e00780059
:104b3800ff0f5000f8ff3e000300370090012000ef
:104b480001002000630007001e00780000f0a700a5
:104b58000000ea000000ea004f00de000040780094
:104b68001e0fe9000004e000f4ff3a000080fa009c
:104b7800000006000000fa00042eef00142eef00db
:104b8800242eef00342eef00d001200000708800a2
:104b9800b0e727008070880020f82d000071880099
:104ba800e0082300807188000c2eef001c2eef0017
:104bb8002c2eef003c2eef000a2eef001a2eef00ed
:104bc800900422005071880000072800d0718800e6
:104bd800062eef00162eef00262eef00362eef00e1
:104be8005000200070708800d0662000f0708800a7
:104bf80020e021007071880040082200f0718800d0
:104c08000080fa00000006000200fa0027000700f2
:104c1800042ea800a9fb07000040eb00004f780015
:104c28001ed0bf000004e0000e003a00e07321002f
:104c380021c0b30001487800f073210031c0b300ef
:104c4800014878000074210041c0b3000148780091
:104c58001074210051c0b3000148780010c0b3009f
:104c68001ef0b700800c200097ff0700ecff37000c
:104c78000200fa00000f780021028000200f2000b7
:104c8800008060001e007000200288000080fa008a
:104c9800000006000000fa00c3e8a80000000000b9
:104ca800000000000080fa00000006000000fa0082
:104cb800b0ff07004dff070020000700ebfe0700cc
:104cc800f4ff070000022000e9ff07000080fa0057
:044cd80000000600d2
:020000040000fa
:104cdc00f03fb1000180b10006003500ee03090081
:104cec0000000000403fb1000180b100fbff3d001f
:104cfc001000b000203fb000020035000080090019
:084d0c00000000000000060099
:020000040000fa
:104d14000200fa00000f78009e007800518188009c
:104d2400ffff37000000fa0020742100800778009c
:104d3400a0752100000188000080fa000000060030
:104d44000000fa0001428000f0ff280000806000ab
:104d540000c0a000004288000080fa0000000600a5
:020000040000fa
:020000040001f9
:045f0000ffffff00a0
:020000040000fa
:020000040001f9
:045f2000ff1f00005f
:020000040000fa
:020000040001f9
:045f300078ffff00f7
:020000040000fa
:020000040001f9
:045f380078ffff00ef
:020000040000fa
:020000040001f9
:045f40009fffff00c0
:020000040000fa
:020000040001f9
:045f5000ddffff0072
:020000040000fa
:020000040001f9
:045f5800ffffff0048
:020000040000fa
:020000040001f9
:045f6000ffffff0040
:020000040000fa
:020000040001f9
:045ff800ff0f000097
:020000040000fa
:020000040100f9
:04200000ffffff00df
:00000001FF
