:020000040000fa
:080000000002040000000000f2
:020000040000fa
:04000800fe020000f4
:020000040000fa
:04000c0040030000ad
:020000040000fa
:040010008003000069
:020000040000fa
:040014001e030000c7
:020000040000fa
:040018006003000081
:020000040000fa
:04001c0010040000cc
:020000040000fa
:04002000a003000039
:020000040000fa
:0400240010040000c4
:020000040000fa
:0400280010040000c0
:020000040000fa
:04002c0010040000bc
:020000040000fa
:0400300010040000b8
:020000040000fa
:04003400da030000eb
:020000040000fa
:0400380010040000b0
:020000040000fa
:04003c0010040000ac
:020000040000fa
:0400400010040000a8
:020000040000fa
:0400440010040000a4
:020000040000fa
:0400480010040000a0
:020000040000fa
:04004c00100400009c
:020000040000fa
:040050001004000098
:020000040000fa
:040054001004000094
:020000040000fa
:040058001004000090
:020000040000fa
:04005c00100400008c
:020000040000fa
:040060001004000088
:020000040000fa
:040064001004000084
:020000040000fa
:040068001004000080
:020000040000fa
:04006c00100400007c
:020000040000fa
:040070001004000078
:020000040000fa
:040074001004000074
:020000040000fa
:040078001004000070
:020000040000fa
:04007c00100400006c
:020000040000fa
:040080001004000068
:020000040000fa
:040084001004000064
:020000040000fa
:040088001004000060
:020000040000fa
:04008c00100400005c
:020000040000fa
:040090001004000058
:020000040000fa
:040094001004000054
:020000040000fa
:040098001004000050
:020000040000fa
:04009c00100400004c
:020000040000fa
:0400a0001004000048
:020000040000fa
:0400a4001004000044
:020000040000fa
:0400a8001004000040
:020000040000fa
:0400ac00100400003c
:020000040000fa
:0400b0001004000038
:020000040000fa
:0400b4001004000034
:020000040000fa
:0400b8001004000030
:020000040000fa
:0400bc00100400002c
:020000040000fa
:0400c0001004000028
:020000040000fa
:0400c4001004000024
:020000040000fa
:0400c8001004000020
:020000040000fa
:0400cc00100400001c
:020000040000fa
:0400d0001004000018
:020000040000fa
:0400d4001004000014
:020000040000fa
:0400d8001004000010
:020000040000fa
:0400dc00100400000c
:020000040000fa
:0400e0001004000008
:020000040000fa
:0400e4001004000004
:020000040000fa
:0400e8001004000000
:020000040000fa
:0400ec0010040000fc
:020000040000fa
:0400f00010040000f8
:020000040000fa
:0400f40010040000f4
:020000040000fa
:0400f80010040000f0
:020000040000fa
:0400fc0010040000ec
:020000040000fa
:0401000010040000e7
:020000040000fa
:0401040010040000e3
:020000040000fa
:0401080010040000df
:020000040000fa
:04010c0010040000db
:020000040000fa
:0401100010040000d7
:020000040000fa
:0401140010040000d3
:020000040000fa
:0401180010040000cf
:020000040000fa
:04011c0010040000cb
:020000040000fa
:0401200010040000c7
:020000040000fa
:0401240010040000c3
:020000040000fa
:0401280010040000bf
:020000040000fa
:04012c0010040000bb
:020000040000fa
:0401300010040000b7
:020000040000fa
:0401340010040000b3
:020000040000fa
:0401380010040000af
:020000040000fa
:04013c0010040000ab
:020000040000fa
:0401400010040000a7
:020000040000fa
:0401440010040000a3
:020000040000fa
:04014800100400009f
:020000040000fa
:04014c00100400009b
:020000040000fa
:040150001004000097
:020000040000fa
:040154001004000093
:020000040000fa
:04015800100400008f
:020000040000fa
:04015c00100400008b
:020000040000fa
:040160001004000087
:020000040000fa
:040164001004000083
:020000040000fa
:04016800100400007f
:020000040000fa
:04016c00100400007b
:020000040000fa
:040170001004000077
:020000040000fa
:040174001004000073
:020000040000fa
:04017800100400006f
:020000040000fa
:04017c00100400006b
:020000040000fa
:040180001004000067
:020000040000fa
:040184001004000063
:020000040000fa
:04018800100400005f
:020000040000fa
:04018c00100400005b
:020000040000fa
:040190001004000057
:020000040000fa
:040194001004000053
:020000040000fa
:04019800100400004f
:020000040000fa
:04019c00100400004b
:020000040000fa
:0401a0001004000047
:020000040000fa
:0401a4001004000043
:020000040000fa
:0401a800100400003f
:020000040000fa
:0401ac00100400003b
:020000040000fa
:0401b0001004000037
:020000040000fa
:0401b4001004000033
:020000040000fa
:0401b800100400002f
:020000040000fa
:0401bc00100400002b
:020000040000fa
:0401c0001004000027
:020000040000fa
:0401c4001004000023
:020000040000fa
:0401c800100400001f
:020000040000fa
:0401cc00100400001b
:020000040000fa
:0401d0001004000017
:020000040000fa
:0401d4001004000013
:020000040000fa
:0401d800100400000f
:020000040000fa
:0401dc00100400000b
:020000040000fa
:0401e0001004000007
:020000040000fa
:0401e4001004000003
:020000040000fa
:0401e80010040000ff
:020000040000fa
:0401ec0010040000fb
:020000040000fa
:0401f00010040000f7
:020000040000fa
:0401f40010040000f3
:020000040000fa
:0401f80010040000ef
:020000040000fa
:0401fc0010040000eb
:020000040000fa
:0402000010040000e6
:020000040000fa
:0402040010040000e2
:020000040000fa
:0402080010040000de
:020000040000fa
:04020c0010040000da
:020000040000fa
:0402100010040000d6
:020000040000fa
:0402140010040000d2
:020000040000fa
:0402180010040000ce
:020000040000fa
:04021c0010040000ca
:020000040000fa
:0402200010040000c6
:020000040000fa
:0402240010040000c2
:020000040000fa
:0402280010040000be
:020000040000fa
:04022c0010040000ba
:020000040000fa
:0402300010040000b6
:020000040000fa
:0402340010040000b2
:020000040000fa
:0402380010040000ae
:020000040000fa
:04023c0010040000aa
:020000040000fa
:0402400010040000a6
:020000040000fa
:0402440010040000a2
:020000040000fa
:04024800100400009e
:020000040000fa
:04024c00100400009a
:020000040000fa
:040250001004000096
:020000040000fa
:040254001004000092
:020000040000fa
:04025800100400008e
:020000040000fa
:04025c00100400008a
:020000040000fa
:040260001004000086
:020000040000fa
:040264001004000082
:020000040000fa
:04026800100400007e
:020000040000fa
:04026c00100400007a
:020000040000fa
:040270001004000076
:020000040000fa
:040274001004000072
:020000040000fa
:04027800100400006e
:020000040000fa
:04027c00100400006a
:020000040000fa
:040280001004000066
:020000040000fa
:040284001004000062
:020000040000fa
:04028800100400005e
:020000040000fa
:04028c00100400005a
:020000040000fa
:040290001004000056
:020000040000fa
:040294001004000052
:020000040000fa
:04029800100400004e
:020000040000fa
:04029c00100400004a
:020000040000fa
:0402a0001004000046
:020000040000fa
:0402a4001004000042
:020000040000fa
:0402a800100400003e
:020000040000fa
:0402ac00100400003a
:020000040000fa
:0402b0001004000036
:020000040000fa
:0402b4001004000032
:020000040000fa
:0402b800100400002e
:020000040000fa
:0402bc00100400002a
:020000040000fa
:0402c0001004000026
:020000040000fa
:0402c4001004000022
:020000040000fa
:0402c800100400001e
:020000040000fa
:0402cc00100400001a
:020000040000fa
:0402d0001004000016
:020000040000fa
:0402d4001004000012
:020000040000fa
:0402d800100400000e
:020000040000fa
:0402dc00100400000a
:020000040000fa
:0402e0001004000006
:020000040000fa
:0402e4001004000002
:020000040000fa
:0402e80010040000fe
:020000040000fa
:0402ec0010040000fa
:020000040000fa
:0402f00010040000f6
:020000040000fa
:0402f40010040000f2
:020000040000fa
:0402f80010040000ee
:020000040000fa
:10040000ef8621000eff22000e0188000000000090
:10041000000020000000e000020032000001200087
:100420002002880014000700ff0007000000e00021
:1004300003003a00a08022000100200002003700e3
:100440000000200001002000810f70000100320038
:100450000f000700000020000000e0000200320052
:100460000000020000000000842a020000000000da
:100470000040da000000fe00a0be20000000e00006
:1004800002003200002020009001880000000600d9
:10049000a1028800800478000000eb001f003700f4
:1004a000e284440054a0b4009905ba00e2844400f8
:1004b00054a0b4009906ba00e284440054a0b400e9
:1004c0000006eb00476fde00fd07b200ae018800ba
:1004d000636ce10003003a000ad801000000eb0061
:1004e0000e003700606ce10008003a00004deb00a0
:1004f0000a05e800020039003420ec000af0a000f0
:100500008b05e900f9ff3e00040037006168e10057
:10051000010032000086eb000b00070019c7ba008b
:100520000e04e0001905ba0003003a000a00e000da
:10053000dbff3a0000000600fe07b200ae028800b2
:100540008a047800f5ff37000cd0a300e20f4d00bd
:100550001c003b0089027800354dba000a05e8000e
:10056000020039003420ec000af0a0008b05e900fd
:100570000f003200254dba000a05e80002003900dc
:100580003420ec000af0a0008b05e90008003200de
:100590000c00e0000600320015cdba000a05e800a4
:1005a000020039003420ec000af0a0008b05e900bd
:1005b0008984e80054a0b4000b00e000e2ff3a0098
:1005c000000006009902ba00055d78008b05e9007d
:1005d000f7ff3200c82ade00055d78008b05e900d0
:1005e000f3ff32000c00e000f1ff320019ddba0029
:1005f000eeff370000000000000000003600f800a9
:10060000809fbe00829fbe00849fbe00869fbe006a
:100610000000fa00c028a9000000eb00c317070083
:100620000080fa004f03be004f02be004f01be0023
:100630004f00be003600f900004006003600f8000a
:10064000809fbe00829fbe00849fbe00869fbe002a
:100650000000fa00ba170700c048a90010002000e7
:10066000b21707000080fa004f03be004f02be0021
:100670004f01be004f00be003600f90000400600ea
:100680003600f800809fbe00829fbe00849fbe009f
:10069000869fbe000000fa00c068a900200020006c
:1006a000a21707000080fa004f03be004f02be00f1
:1006b0004f01be004f00be003600f90000400600aa
:1006c0003600f800809fbe00829fbe00849fbe005f
:1006d000869fbe000000fa00c088a90030002000fc
:1006e000921707000080fa004f03be004f02be00c1
:1006f0004f01be004f00be003600f900004006006a
:100700003600f800809fbe00829fbe00849fbe001e
:10071000869fbe000000fa00c608a90070002000f5
:10072000821707000080fa004f03be004f02be0090
:100730004f01be004f00be003600f9000040060029
:100740003600f800809fbe00829fbe00849fbe00de
:10075000869fbe000000fa002146800000102000a5
:10076000008060000000e00003003200c508a9001e
:10077000c00020006d170700204680007000600058
:100780000000e00003003200c488a900a00020009f
:100790006617070020468000610060000000e0004e
:1007a00003003200c408a900b00020005f17070052
:1007b000ffff37003600f800809fbe00829fbe001a
:1007c000849fbe00869fbe000000fa00f08080007b
:1007d0000000e00002003200f08080000000010014
:1007e000d0862100104078008040e800d0862100ab
:1007f00001487800c086210011c0b300014878008c
:100800000068a9000080fa004f03be004f02be003e
:100810004f01be004f00be003600f9000040060048
:0c0820000040da000000fe0000000500af
:020000040000fa
:10082c0000000000000000000000000000000000bc
:10083c0000000000000000000000000000000000ac
:10084c00000000000000000080800000808000009c
:10085c00808000008080000080800000808000008c
:10086c00808000008080000080800000808000007c
:10087c00000000000000000000000000000000006c
:10088c00000000000000000000000000000000005c
:10089c0000800000808000008080000080800000cc
:1008ac00000000000000000000000000000000003c
:1008bc0000000000008000008080000080800000ac
:1008cc00808000008080000080800000808000001c
:1008dc00808000008080000080800000800000008c
:1008ec0000000000000000000000000000000000fc
:1008fc0080800000808000008080000080800000ec
:10090c0080800000808000008080000080800000db
:10091c0080800000808000008080000000000000cb
:10092c00008000008080000080800000808000003b
:10093c0080800000808000008080000080800000ab
:10094c008080000080800000ffff0000ffff00009f
:10095c000707000007070000070700000707000053
:10096c000707000007070000070700000707000043
:10097c000f1f0000fefe0000fcf000000000000055
:10098c0080e00000f0f800007c1e00000e07000064
:10099c00030300000101000001010000010100003f
:1009ac00010000000a060000070600000ae0000033
:1009bc008000000000ff0000ffff0000ff070000a8
:1009cc0007070000070700000707000007070000e3
:1009dc00070700000707000007070000070f0000cb
:1009ec001fff0000fefc0000f8c00000000000002b
:1009fc0007070000070700000707000007070000b3
:100a0c0007ff0000ffff0000ff07000007070000c2
:100a1c0007070000070700000707000000000000a0
:100a2c0000ff0000ffff0000ff07000007070000a9
:100a3c000707000007070000070700000707000072
:100a4c000707000007070000ffff0000ffff000082
:100a5c000000000000780000787800007878000032
:100a6c0078780000787800007878000078780000ba
:100a7c007c3c00003f1f00000f0300000000000042
:100a8c003fff0000ffff0000f0c0000080000000ee
:100a9c00000000000000000000000000000000004a
:100aac000000000000800000c0f00000fc3f0000cf
:100abc000f00000000ff0000ffff0000ff0000001f
:100acc0000780000787800007878000078780000d2
:100adc0078780000f8f80000f8f80000f8fc000046
:100aec003c3f00001f0f000007000000000000004a
:100afc0000000000000000000000000000000000ea
:100b0c0000ff0000ffff0000ff00000000000000dd
:100b1c0000000000000000000000000000000000c9
:100b2c0000ff0000ffff0000ff000000000f0000ae
:100b3c000f0f00000f0f00000f0f00000f0f000031
:100b4c000f000000000000003f3f00003f3f00008e
:100b5c000000000000000000000000000000000089
:100b6c000000000000000000000000000000000079
:100b7c000000000000000000000000000000000069
:100b8c000000000001030000070f00000f1f000011
:100b9c001e3e00003e3c00003c3c00003c3c000083
:100bac001e1e00000f0f00000703000000000000d5
:100bbc0000000000003f00003f3f00003f0000002d
:100bcc000000000000000000000000000000000019
:100bdc000000000000010000030700000f1f0000d0
:100bec003f3e00003c3800003020000000000000b8
:100bfc0000000000000000000000000000000000e9
:100c0c00003f00003f3f00003f00000000000000dc
:100c1c0000000000000000000000000000000000c8
:100c2c00003f00003f3f00003f3c00003c3c000008
:100c3c003c3c00003c3c00003c3c00003c3c0000c8
:100c4c003c3c00003c3c00000000000000000000a8
:100c5c000000000000000000000000000000000088
:100c6c000000000000000000000000000000000078
:100c7c000000000000000000000000000000000068
:100c8c000000000000000000000000000000000058
:100c9c000000000000000000000000000000000048
:100cac000000000000000000000000000000000038
:100cbc000000000000000000000000000000000028
:100ccc000000000000000000000000000000000018
:100cdc000000000000000000000000000000000008
:100cec0000000000000000000000000000000000f8
:100cfc0000000000000000000000000000000000e8
:100d0c0000000000000000000000000000000000d7
:100d1c0000000000000000000000000000000000c7
:100d2c0000000000000000000000000000000000b7
:100d3c0000000000000000000000000000000000a7
:100d4c00000000000000000000600000e0e0000077
:100d5c0080e00000e0e0000080e00000e0600000c7
:100d6c0000600000e0e0000080e00000e0e0000037
:100d7c0080e00000e060000000600000e0e00000a7
:100d8c0080e00000e0e0000080e00000e060000097
:100d9c000000000000000000e0e00000e040000067
:100dac00e0e00000c000000080c00000e060000037
:100dbc00e0c0000080000000e0e00000e040000027
:100dcc00602000004000000060e00000f0f800002f
:100ddc006000000080c00000e0200000e0e00000a7
:100dec00c0000000000000000000000080c00000f7
:100dfc00e060000060c000008000000080c00000c7
:100e0c00e0600000e0c0000080000000e0e00000b6
:100e1c00e0400000e0e00000c0600000e0e0000006
:100e2c00c00000000000000000600000f0f00000b6
:100e3c00f860000000e00000e0e00000406000000e
:100e4c00204000000000000000800000838f0000a4
:100e5c008f830000808300008f8f00008380000050
:100e6c0080800000838f00008f830000808300004f
:100e7c008f8f00008380000080800000838f000033
:100e8c008f830000808300008f8f00008380000020
:100e9c008e8e00008e800000bfbf0000bf8400005b
:100eac008f8f000087800000838700008f8c0000ec
:100ebc008f870000838000008f8f00008f800000e0
:100ecc008080000080800000808700008f8f0000f1
:100edc008c800000838700008f8d00008d8d0000ba
:100eec00858000008e8e00008e80000083870000bd
:100efc008f8c00008c8600008280000083870000ad
:100f0c008f8c00008f870000838000008f8f000083
:100f1c008f8000008f8f00008f8000008f8f00006b
:100f2c008f8000008e8e00008e800000878f000066
:100f3c008f8c0000808f00008f8f0000808000005d
:100f4c008080000080000000000000000000000015
:100f5c000000000000000000000000000000000085
:100f6c000000000000000000000000000000000075
:100f7c000000000000000000000000000000000065
:100f8c000000000000000000000000000000000055
:100f9c000000000000000000000000000000000045
:100fac000000000000000000000000000000000035
:100fbc000000000000000000000000000000000025
:100fcc000000000000000000000000000000000015
:100fdc000000000000000000000000000000000005
:100fec0000000000000000000000000000000000f5
:100ffc0000000000000000000000000000000000e5
:10100c0000000000000000000000000000000000d4
:10101c0000000000000000000000000000000000c4
:10102c0000000000000000000000000000000000b4
:10103c0000000000000000000000000000000000a4
:10104c000000000000000000417f00004100000093
:10105c004854000054540000200000003854000094
:10106c005454000018000000043e0000442000000e
:10107c000000000014140000141400000000000014
:10108c000000000000000000000000000000000054
:10109c000000000000000000000000000000000044
:1010ac000000000000000000000000000000000034
:1010bc007e110000111100007e00000000000000f5
:1010cc000000000000000000000000000000000014
:1010dc000000000000000000004100007f41000003
:1010ec000048000054540000542000000000000090
:1010fc001414000014140000000000000000000094
:10110c0000000000000000000000000000000000d3
:10111c0000000000000000000000000000000000c3
:10112c000000000000000000000000007e11000024
:10113c00111100007e000000000000000000000003
:10114c000000000000000000000000000000000093
:10115c000000000000000000000000000000000083
:10116c000000000000000000004000004080000073
:10117c0000fc00000404000004040000040400004f
:10118c000404000004040000040400000404000033
:10119c00040400004444000084040000fc0400002b
:1011ac000404000004040000040400000404000013
:1011bc0004040000040400000404000004440000c3
:1011cc004484000004fc000004040000040400003b
:1011dc0004040000040400000404000004040000e3
:1011ec00040400001f110000111100001111000077
:1011fc001111000011110000111100001f0400005a
:10120c0004040000040400000404000004040000b2
:10121c0004040000040400000404000004040000a2
:10122c000404000004040000040400000404000092
:10123c000404000004040000040400000404000082
:10124c00fc00000000000000000000000000000096
:10125c000000000000000000020200007e020000fe
:10126c00020000007c0000000042000062720000de
:10127c007bff00007a720000624200000000000058
:10128c0000020000027e0000020200007454000004
:10129c005c00000042620000727b0000ff7a0000dc
:1012ac007262000042000000000000000202000018
:1012bc007e02000002540000546c0000004200004a
:1012cc00627200007bff00007a7200006242000034
:1012dc000000000000000000000000000000000002
:1012ec0000000000417f00004100000000000000f1
:1012fc001414000014140000000000000000000092
:10130c0000000000000000000000000000000000d1
:10131c0000000000000000000000000000000000c1
:10132c000000000000000000000000007e11000022
:10133c00111100007e0000000000000002040000fb
:10134c00ff0400000200000000000000f800000094
:10135c0000000000705000007020000020200000f1
:10136c002020000020200000202000002020000071
:10137c0070ff000070000000000000000000000082
:10138c000000000000000000000000000000000051
:10139c00000000000000000000000000ff00000042
:1013ac000000000000000000000000000000000031
:1013bc000000000000000000000000000000000021
:1013cc000000000000ff0000000000000000000012
:1013dc00001f000020400000201f00000000000043
:1013ec007c000000745400005c0000000000000051
:1013fc001414000014140000000000000000000091
:10140c0000000000000000000000000000000000d0
:10141c0000000000000000000000000000000000c0
:10142c000000000000000000000000001f20000071
:10143c00402000001f00000000000000f808000021
:10144c000f080000f800000000ba0000aaae00006f
:10145c00000000001c1400001c080000080800001c
:10146c000808000008080000080800000808000030
:10147c0008ff000008080000080800000808000029
:10148c000808000008080000080800000808000010
:10149c000808000008080000081c0000ff1c0000e1
:1014ac000000000000000000000000000000000030
:1014bc000000000000000000000000000000000020
:1014cc000000000000ff0000000000000000000011
:1014dc00001f000020400000201f000000740000ce
:1014ec00545c000000540000546c0000000000002c
:1014fc001414000014140000000000000000000090
:10150c0000000000000000000000000000000000cf
:10151c0000000000000000000000000000000000bf
:10152c000000000000000000000000001f20000070
:10153c00402000001f00000000000000ff00000021
:10154c0000000000ff000000000a00000a0d00006f
:10155c000000000007050000070200000202000066
:10156c00020200000202000002820000820200005f
:10157c0002ff000002020000020200000202000052
:10158c00020200000202000002020000020200003f
:10159c00020200008282000002020000ff02000032
:1015ac00020200000202000002020000020200001f
:1015bc00020200000202000002020000028200008f
:1015cc008202000007ff000007000000000000007e
:1015dc00001f000020400000201f000000540000ed
:1015ec00546c0000000000007c00000000000000b3
:1015fc00141400001414000000000000000000008f
:10160c0000000000000000000000000000000000ce
:10161c0000000000000000000000000000000000be
:10162c000000000000000000000000001f2000006f
:10163c00402000001f000000000000000704000014
:10164c00fc04000007000000000000000000000087
:10165c00000000000000000004040000fc04000076
:10166c0064500000f840000000840000c4e5000055
:10167c00f6ff0000f4e40000c48400000000000049
:10168c000004000004fc000004040000b8a80000e2
:10169c00e800000084c40000e5f60000fff4000040
:1016ac00e4c40000840000000000000004040000fa
:1016bc00fc040000f4a80000e80000000084000016
:1016cc00c4e50000f6ff0000f4e40000c484000050
:1016dc0000000000000000000000000000000000fe
:1016ec0000000000000000000000000000000000ee
:1016fc0000000000000000000000000000000000de
:10170c0000000000000000000000000000000000cd
:10171c0000000000000000000000000000000000bd
:10172c0000000000000000000000000000000000ad
:10173c00000000000000000000000000000000009d
:10174c00ff0000000000000000000000000000008e
:10175c00000000000000000000000000000000007d
:10176c00000000000000000000000000000000006d
:10177c0000ff00008080000080800000808000005e
:10178c00808000008080000080800000808000004d
:10179c00808000008080000080800000ff800000be
:1017ac00808000008080000080800000808000002d
:1017bc00808000008080000080800000808000001d
:1017cc008080000080ff000080800000808000008e
:1017dc0080800000808000008080000080800000fd
:1017ec0080800000808000008080000080800000ed
:1017fc0080800000808000008080000080800000dd
:10180c0080800000808000008080000080800000cc
:10181c0080800000808000008080000080800000bc
:10182c0080800000808000008080000080800000ac
:10183c00808000008080000080800000808000009c
:10184c00ff00000000000000f0f800009898000075
:10185c0098f80000f01f00001f01000001010000bb
:10186c001f1f0000f8f800009898000098f800007e
:10187c00701f00001f190000191900001f0f000035
:10188c00f0f800001818000018380000300f0000a5
:10189c001f180000181800001c0c0000f0f80000c5
:1018ac001818000018380000300f00005f78000096
:1018bc00381800001c0c0000f8f800001818000084
:1018cc0018f80000f01f00001f1800001818000086
:1018dc001f0f0000f8f8000098980000989800007e
:1018ec00181f00001f19000019190000191800001a
:1018fc00f8f800009898000098980000181f000055
:10190c001f0100000101000001000000f0f80000c0
:10191c001898000098b80000b00f00001f180000c5
:10192c00191900001f0f0000f0f900001a9a0000ae
:10193c009ab90000b00f00001f1800001919000020
:10194c001f0f0000f8f800008080000080f80000f5
:10195c00f81f00001f010000010100001f1f000004
:10196c000000000018f80000f8180000000000004b
:10197c00001800001f1f00001800000000000000ed
:10198c0018fb0000fb18000000000000001800000d
:10199c001f1f0000180000000000000000180000cd
:1019ac00f8f80000180c00001c180000181f0000ac
:1019bc000f000000f8f80000c0e0000070380000d4
:1019cc00181f00001f010000030f00001e1800006c
:1019dc00f8f800000000000000000000001f0000ec
:1019ec001f1800001818000018180000f8f8000064
:1019fc00e0c00000e0f80000f81f00001f0000002d
:101a0c00010000001f1f0000f8f80000e0c00000fb
:101a1c0080f80000f81f00001f0000000103000008
:101a2c001f1f0000f0f800001818000018f8000044
:101a3c00f00f00001f180000181800001f0f000006
:101a4c00f0fb00001b1800001bfb0000f00f000057
:101a5c001f180000181800001f0f0000f8f80000f5
:101a6c009898000098f80000f01f00001f0100007b
:101a7c000101000001000000f8f800009898000037
:101a8c0098f80000f01f00001f0100000103000087
:101a9c001f1e0000f0f800009898000098b8000095
:101aac00300c00001d190000191900001f0f000058
:101abc00f0f800009898000098b80000300c000076
:101acc005d790000391900001f0f0000001800009c
:101adc0018f80000f81800001800000000000000c2
:101aec001f1f000000000000f8f8000000000000bc
:101afc0000f80000f80f00001f1800001818000074
:101b0c001f0f0000fbfb00000000000000fb0000aa
:101b1c00fb0f00001f180000181800001f0f00001a
:101b2c00f8f800000000000000f80000f8070000c2
:101b3c000f1c0000181c00000f07000000f800002c
:101b4c00f880000080f80000f800000000010000a0
:101b5c001f1f00000100000018180000189800005a
:101b6c00d8780000381c00001e1b0000191800005b
:101b7c0018180000303800001818000098f8000001
:101b8c0070000000006e00006f01000000000000fb
:101b9c000000000000000000000000000000000039
:101bac0000200000381800000000000000000000b9
:101bbc0000c00000c0000000000000000000000099
:101bcc00181800000000000000f80000f8000000e9
:101bdc0080c00000000000001f1f0000070d000067
:101bec0018000000f8f800000080000000f8000069
:101bfc00f80f00001f1c0000071c00001f0f000046
:101c0c0000800000c0c00000c0f80000f800000018
:101c1c000f1f0000181800001f1f0000008000009c
:101c2c00c0c00000c0c00000000000000f1f00007a
:101c3c00181800001800000000800000c0c0000050
:101c4c00c0c00000800000000f1f0000181800002a
:101c5c001f0f000000800000c0c00000c0c00000ca
:101c6c0080000000ffff0000181800001f0f00008c
:101c7c0000c00000c0c00000c0c000008000000018
:101c8c001f1f0000000000001f1f0000000e0000be
:101c9c001c2a00003846000054620000707e0000d0
:101cac00f0f800001818000098f80000f00f000081
:101cbc001f1a0000191800001f0f00000020000060
:101ccc0030f80000f80000000000000018180000b8
:101cdc001f1f0000181800003038000018180000f2
:101cec0098f80000f01800001c1e00001f1b0000dc
:101cfc00191800003038000098980000d8f800003f
:101d0c00300c00001c190000191900001f0f0000f6
:101d1c0080c00000e0300000f8f800000007000070
:101d2c0007060000061f00001f06000078f80000e0
:101d3c00d8d80000d8d80000980c00001c1800005f
:101d4c00181800001f0f0000f0f800009898000011
:101d5c0098b80000300f00001f190000191900007e
:101d6c001f0f00001818000018980000d878000009
:101d7c00381c00001e0300000100000000000000e1
:101d8c0070f800009898000098f80000700f0000a0
:101d9c001f190000191900001f0f0000f0f80000b7
:101dac009898000098f80000f00c00001d19000035
:101dbc00191900001f0f0000004100007f410000b6
:101dcc00000000007e040000040400007800000005
:101ddc001e200000402000001e0000003c4a0000b5
:101dec004a2c0000000000007e04000002020000eb
:101dfc0004000000023f000042220000003c0000f2
:101e0c004a4a00002c000000007e00000402000082
:101e1c0002040000000000002649000049320000c6
:101e2c00000000003c4a00004a2c000000000000aa
:101e3c007e04000002020000040000001e200000ce
:101e4c00402000001e0000003c4a00004a2c00000c
:101e5c00000000007e0400000202000004000000ec
:101e6c000000000000000000000000000000000066
:101e7c0000000000007f000009090000064000007f
:101e8c00003e000041410000413e000000fe000009
:101e9c00222200001c000000023f00004222000031
:101eac0000400000000000000000000000000000e6
:101ebc000000000000000000000000000000000016
:101ecc000000000000000000000000000000000006
:101edc0000490000310000004932000000520000af
:101eec003100000052320000004900007365000010
:101efc00743d0000000000002020000020200000a5
:101f0c0020200000202000002020000020200000c5
:101f1c0020200000202000002020000020200000b5
:101f2c0000200000202000002020000020200000c5
:101f3c002020000020200000202000002020000095
:101f4c0020200000202000002000000020200000a5
:101f5c00504f00005254000045200000454c00003a
:101f6c00454b0000545200004f4e0000494b0000fe
:101f7c002020000000200000207700007777000070
:101f8c002e7000006f720000746500002e6300005c
:101f9c006f6d00002e740000722000002000000005
:101fac0020500000524f00004645000053590000dd
:101fbc004f4e0000454c0000204700004f4d0000e4
:101fcc00554c000055200000002000005941000035
:101fdc005a4900004c4900004d20000047450000c4
:101fec004c49000053540000495200004d4500007c
:041ffc0020000000c1
:020000040000fa
:102000000800fa00204798003147980022079800fe
:10201000634798000040eb00004f7800160037003f
:102020001e80fb00ae009000008040001040780051
:102030000080fb00e500b900000ab10080007800d4
:1020400080532100808040001e407800e600b900e7
:10205000004178003e4090000040410001027800bd
:1020600053c0b30012c0b300804078002e409000ef
:102070004a0107001e4fe8006e4090009e40780025
:1020800080cf5000e6ff39000080fa000000060013
:102090000400fa00004f780011479800224798008a
:1020a0002e4090008080fb00a0c2280000804000ed
:1020b0000002780073c0b30022c0b3009e409000bd
:1020c0001e407800350107000080fa00000006007d
:1020d0000800fa002047980031479800220798002e
:1020e00063479800744798002e0090006101b80083
:1020f0006e4090000080fb00c200dd0020822100c5
:10210000008040009000900010007800800f510087
:10211000818f5900750031002e0090008000eb0087
:102120000042eb00ee419000a2052100f00d0700f7
:102130000040eb00004f78001e80fb00a10521004d
:1021400000804000104078000004e00007003a00e2
:102150008458210053c0b30012c0b300be409000a9
:102160002e4090000d0107001e4fe8007e409000b9
:102170000004e00059003200160037001e80fb000a
:10218000a105210000804000104078000080fb0085
:10219000e500b9000005b000800078008053210000
:1021a000808040001e407800e600b90000417800c1
:1021b0003e409000004041000102780053c0b3004f
:1021c00012c0b300804078002e409000f30007005a
:1021d0001e4fe8007e4090009e40780080cf500067
:1021e000e6ff39001e407800e600b9008040780024
:1021f0003e40900000c04000c46d210053c0b300b9
:1022000012c0b300804078002e409000e300070029
:10221000170037001e80fb00a10521000080400050
:10222000104078000080fb00e500b9000005b00018
:102230008000780080532100808040001e80fb00d9
:102240000000e800004078004301dd003e409000bf
:10225000004041000102780053c0b30012c0b30037
:10226000804078002e409000cc0007001e4fe80010
:102270006e4090009e40780080cf5000e5ff39000e
:102280001a0037001e80fb00a105210000804000dd
:10229000104078000080fb00e500b9000005b000a8
:1022a0008000780080532100808040001e4078002c
:1022b000e600b900004178003e4090000040410037
:1022c0000102780053c0b30012c0b3008040780010
:1022d0002e409000b10007001e4fe8006e409000b5
:1022e0009e40780080cf5000e6ff39000080fa0061
:1022f000000006000800fa002047980031479800c7
:102300002207980063479800744798002e009000b9
:102310006101b8006e4090000080fb00c200dd004b
:102320002082210000804000900090001000780082
:10233000800f5100818f59007a0031002e009000eb
:102340008000eb000042eb00ee419000a20521006e
:10235000670d07000040eb00004f78001e80fb0077
:10236000a105210000804000104078000004e0003a
:102370000c003a00c0e42800104078008080fb0088
:1023800060e52800008040000002780073c0b300c0
:1023900022c0b300be4090002e4090007f00070096
:1023a0001e4fe8007e4090000004e000590032001b
:1023b000160037001e80fb00a105210000804000b0
:1023c000104078000080fb00c1e42800008040003d
:1023d000104078008080fb0060e52800808040008d
:1023e0001e4078004301dd003e4090000040410067
:1023f0000102780073c0b30022c0b30080407800af
:102400002e409000650007001e4fe8007e409000bf
:102410009e40780080cf5000e6ff39001e407800d3
:10242000c300dd003e40900000c04000e4dc280016
:1024300073c0b30022c0b300804078002e409000eb
:1024400056000700180037001e80fb00a105210080
:1024500000804000104078000080fb00c1e42800ac
:1024600000804000104078008080fb0060e528007c
:10247000808040001e80fb000000e80000407800e3
:102480004301dd003e409000004041000102780021
:1024900073c0b30022c0b300804078002e4090008b
:1024a0003e0007001e4fe8006e4090009e407800fe
:1024b00080cf5000e4ff39001a0037001e80fb0077
:1024c000a105210000804000104078000080fb0042
:1024d000c1e4280000804000104078008080fb00ac
:1024e00060e52800808040001e4078004301dd0048
:1024f0003e409000004041000102780073c0b300ec
:1025000022c0b300804078002e40900023000700d6
:102510001e4fe8006e4090009e40780080cf500033
:10252000e6ff39000080fa00000006000200fa0011
:102530000040eb0010479800130037000040eb000c
:10254000004f78000a0037001e81fb001e409000fb
:102550000080fb00010621004311dd000000410066
:10256000008040008040eb00014878001e4fe800ea
:102570001e4078000004e000f3ff3d001e40900084
:102580000040e800104798001e409000e74f5000c0
:10259000eaff36000080fa00000006000a00fa0098
:1025a0004047980051479800624798007347980049
:1025b000440798000040eb001047980026003700c1
:1025c0000040eb00004f78001c0037001e409000d8
:1025d0008080fb007e4090000080fb008088b90076
:1025e000800078001e80fb000080400010079800eb
:1025f0009e80fb005e4090000080fb0080814000d8
:102600001e4090008080fb004e4090000080fb0048
:10261000008040004e0190009e009000810041002b
:102620009140780002062100c319dd0000804100be
:1026300000004100014878001e4fe8007e409000f5
:102640009e40780080cf5000e0ff39001e4090008f
:102650000040e800104798009e4090006e409000b7
:1026600080cf5000d6ff39000080fa00000006003d
:102670000800fa0020479800314798004247980028
:102680005347980064479800ae409000014f78008f
:10269000290037006e4090000004e0001300320073
:1026a0009e81fb004e4090000080fb001e81fb00dd
:1026b000ce4090008180fb004311dd00810041008d
:1026c000020621008100410011417800de409000a7
:1026d0008140710002062100c319dd000080410025
:1026e0000000410001487800120037009e81fb0085
:1026f0004e4090000080fb001e81fb00ce40900009
:102700008180fb004311dd008100410002062100b1
:102710008100410011417800de409000814061005d
:1027200002062100c319dd000080410000004100c5
:10273000014878001e4fe8003e4090009e4078001f
:1027400080cf5000d3ff39000080fa00000006005f
:102750000c00fa00404798005147980062479800e3
:102760007347980044079800254f98000040eb00fd
:10277000104798003d0037000040eb00004f780004
:10278000330037001e4090008080fb007e409000a8
:102790000080fb008088b900800078001e80fb006c
:1027a00000804000100798002e4890000004e000d0
:1027b000140032009e80fb005e4090000080fb0011
:1027c000808140001e4090008080fb004e409000c1
:1027d0000080fb00008040004e0190009e009000b1
:1027e000810041009140780081c0ea00020621008a
:1027f000c319dd000080410000004100014878005d
:10280000120037009e80fb005e4090000080fb00bd
:10281000808140001e4090008080fb004e40900070
:102820000080fb00008040004e0190009e00900060
:10283000810041009140780002062100c319dd00ab
:102840000080410000004100014878001e4fe80070
:102850007e4090009e40780080cf5000c9ff390034
:102860001e4090000040e800104798009e409000f5
:102870006e40900080cf5000bfff39000080fa000a
:10288000000006000c00fa004047980051479800ed
:10289000624798007347980044079800254f9800b6
:1028a0000040eb0010479800430037000040eb0069
:1028b000004f7800390037001e4090008080fb00f8
:1028c0007e4090000080fb008088b9008000780086
:1028d0001e80fb0000804000100798002e489000ea
:1028e0000004e000170032007e4090008080fb0072
:1028f0001e80fb00808050005e4090000080fb0046
:10290000808140001e4090008080fb004e4090007f
:102910000080fb00008040004e0190009e0090006f
:10292000810041009140780081c0ea000206210048
:10293000c319dd000080410000004100014878001b
:10294000150037007e4090008080fb001e80fb0059
:10295000808050005e4090000080fb00808140003d
:102960001e4090008080fb004e4090000080fb00e5
:10297000008040004e0190009e00900081004100c8
:102980009140780002062100c319dd00008041005b
:1029900000004100014878001e4fe8007e40900092
:1029a0009e40780080cf5000c3ff39001e40900049
:1029b0000040e800104798009e4090006e40900054
:1029c00080cf5000b9ff39000080fa0000000600f7
:1029d0000000fa00d0818000e70f500042003e0066
:1029e000c1818000f0032000808f50001e003e0057
:1029f0003cd0bf000004e0000f003200c081800026
:102a00000104200080804000d0818000c308dd00e8
:102a10000080400001062100008040001040780046
:102a2000e5000700c08180000000e800c081880048
:102a30003c70ef003a003700c1818000d0818000f7
:102a4000c308dd0000804000010621000080400036
:102a5000104078000080fb001e01070010c0b3008a
:102a60003cf0b7002e003700c18180001004200028
:102a7000808f50000f003a003cd0bf000004e000ff
:102a800007003200000420009e010700c081800082
:102a90000000e800c08188003c70ef002000370093
:102aa000000420005101070010c0b3003cf0b70043
:102ab0001b0037003830ef00d08180000000e800b4
:102ac000d0818800d1818000800b2000010070003f
:102ad00046010700d1818000800b200001007000ba
:102ae000880107000e003700d0818000e80f5000f9
:102af00008003a00800b20003c010700800b2000fa
:102b000080010700d08180000000e800d0818800ab
:102b1000030037003830ef003a30ef003670ef0036
:102b20000080fa00000006000200fa00004f780062
:102b30003670ef003a30ef00220037008000eb00e3
:102b400000042000b501070011002000000420004f
:102b5000b2010700d1818000800b200001007000cd
:102b60008000eb00ad010700d1818000800b2000c8
:102b70000100700011002000a80107003830ef00ac
:102b8000090037001e80fb008000eb003d000700bd
:102b90001e80fb00110020003a000700c081800069
:102ba0000000e800c0818800c1818000f00320009f
:102bb000808f5000f3ff3600d08180000000e800d5
:102bc000d0818800d0818000e70f5000dbff360005
:102bd0000080fa00000006000000fa003670ef00e6
:102be00015eea900340ea90014eea80024aea90029
:102bf000248ea9008000eb00000c20008701070054
:102c000011002000000c2000840107008000eb0070
:102c100000042000810107001100200000042000b2
:102c20007e0107008000eb00800b20007b01070085
:102c300011002000800b2000780107008000eb00cd
:102c4000f00320007501070011002000f0032000b0
:102c50007201070000042000e4000700800b200040
:102c6000e20007000004200026010700800b20007e
:102c7000240107003830ef003a30ef000080fa00fe
:102c8000000006000400fa00000f78001107980009
:102c9000356ea8001e0090000000e0000200320027
:102ca00024aea80001003700248ea8001e00780082
:102cb00061006000004078000004e0000200320083
:102cc000240ea80001003700240ea9009e00780001
:102cd000628060000000e00002003200246ea80064
:102ce00001003700246ea9009e0078006480600017
:102cf0000000e0000200320034cea80001003700de
:102d000034cea9009e007800688060000000e000da
:102d10000200320035eea8000100370035eea900b0
:102d20009e007800708060000000e0000200320029
:102d3000348ea80001003700348ea9000002200064
:102d40001e0060000000e0000200320034aea80067
:102d50000100370034aea900000420001e0060000e
:102d60000000e0000200320024cea800010037007d
:102d700024cea900000820001e0060000000e00032
:102d80000200320025aea8000100370025aea900e0
:102d900010002000a20d070015eea8001000200072
:102da0009f0d070015eea90024aea900248ea900ee
:102db0000080fa00000006000200fa00004f7800d0
:102dc000356ea80024aea8001e80fb0061006000e4
:102dd000004078000004e00002003200240ea80049
:102de00001003700240ea9001e80fb006200600075
:102df0000000e00002003200246ea800010037004d
:102e0000246ea9001e80fb00640060000000e0004a
:102e10000200320034cea8000100370034cea900f1
:102e20001e80fb00680060000000e000020032002d
:102e300035eea8000100370035eea9001e80fb002a
:102e4000700060000000e00002003200348ea80034
:102e500001003700348ea9009e80fb000002200094
:102e6000008060000000e0000200320034aea800e4
:102e70000100370034aea9009e80fb000004200052
:102e8000008060000000e0000200320024cea800b4
:102e90000100370024cea9001e4078000004e000a5
:102ea00002003d0025aea8000100370025aea900b4
:102eb000100020005a0d070015eea8001000200099
:102ec000570d070015eea90024aea9000080fa00f6
:102ed000000006000200fa00000f7800356ea8001e
:102ee000248ea8001e007800610060000040780079
:102ef0000004e00002003200240ea80001003700a8
:102f0000240ea9009e007800628060000000e000ae
:102f100002003200246ea80001003700246ea900d0
:102f20009e007800648060000000e0000200320033
:102f300034cea8000100370034cea9009e007800ee
:102f4000688060000000e0000200320035eea8005a
:102f50000100370035eea9009e0078007080600007
:102f60000000e00002003200348ea80001003700ab
:102f7000348ea900000220001e0060000000e00066
:102f80000200320034aea8000100370034aea900c0
:102f9000000420001e0060000000e000020032007b
:102fa00024cea8000100370024cea900000820008c
:102fb0001e0060000000e0000200320025aea80004
:102fc0000100370025aea90010002000140d0700f5
:102fd00015eea80010002000110d070015eea90045
:102fe000248ea9000080fa00000006000200fa000a
:102ff000000f7800356ea90024aea8001e007800ee
:1030000061006000004078000004e000020032002f
:10301000240ea80001003700240ea9009e007800ad
:10302000628060000000e00002003200246ea80010
:1030300001003700246ea9009e00780064806000c3
:103040000000e0000200320034cea800010037008a
:1030500034cea9009e007800688060000000e00087
:103060000200320035eea8000100370035eea9005d
:103070009e007800708060000000e00002003200d6
:10308000348ea80001003700348ea9000002200011
:103090001e0060000000e0000200320034aea80014
:1030a0000100370034aea900000420001e006000bb
:1030b0000000e0000200320024cea800010037002a
:1030c00024cea900000820001e0060000000e000df
:1030d0000200320025aea8000100370025aea9008d
:1030e00010002000ce0c070015eea80010002000f4
:1030f000cb0c070015eea90024aea9000080fa0051
:10310000000006000200fa00000f7800356ea900ea
:10311000248ea8001e007800610060000040780046
:103120000004e00002003200240ea8000100370075
:10313000240ea9009e007800628060000000e0007c
:1031400002003200246ea80001003700246ea9009e
:103150009e007800648060000000e0000200320001
:1031600034cea8000100370034cea9009e007800bc
:10317000688060000000e0000200320035eea80028
:103180000100370035eea9009e00780070806000d5
:103190000000e00002003200348ea8000100370079
:1031a000348ea900000220001e0060000000e00034
:1031b0000200320034aea8000100370034aea9008e
:1031c000000420001e0060000000e0000200320049
:1031d00024cea8000100370024cea900000820005a
:1031e0001e0060000000e0000200320025aea800d2
:1031f0000100370025aea90010002000880c070050
:1032000015eea80010002000850c070015eea9009f
:10321000248ea9000080fa00000006000400fa00d5
:10322000000f780011079800356ea9001e0090006d
:103230000000e0000200320024aea80001003700c8
:10324000248ea8001e007800610060000040780015
:103250000004e00002003200240ea8000100370044
:10326000240ea9009e007800628060000000e0004b
:1032700002003200246ea80001003700246ea9006d
:103280009e007800648060000000e00002003200d0
:1032900034cea8000100370034cea9009e0078008b
:1032a000688060000000e0000200320035eea800f7
:1032b0000100370035eea9009e00780070806000a4
:1032c0000000e00002003200348ea8000100370048
:1032d000348ea900000220001e0060000000e00003
:1032e0000200320034aea8000100370034aea9005d
:1032f000000420001e0060000000e0000200320018
:1033000024cea8000100370024cea9000008200028
:103310001e0060000000e0000200320025aea800a0
:103320000100370025aea900200020003c0c07005a
:1033300015eea80030002000390c070015eea9009a
:1033400024aea900248ea9000080fa000000060027
:103350000000fa005400070000d0bf00f34f5000f7
:1033600004003e0000d0bf000040e80000f0b700bd
:103370004a0037000070ef0002d0bf000004e000f8
:1033800001003a00358ea900e1808000301f200046
:10339000808f500004003e00e08080000000e800c4
:1033a000e08088002d003700358ea8001c30ef002b
:1033b0002084210011c0b30001487800308421002e
:1033c00001c1b30001487800408421008040eb0037
:1033d000014878005084210011c0b30001487800f2
:1033e000608421008040eb00014878007084210057
:1033f00021c0b300014878008084210041c0b3009f
:1034000001487800908421008040eb00014878005a
:10341000a0842100a1c0b30001487800b08421003d
:1034200011c0b30001487800c084210021c0b3005e
:1034300001487800d084210021c9b30001487800f8
:10344000e084210001c3b3000148780010c0b3003c
:1034500013f0b700d0c0b30002f0b70004d0bf0033
:10346000e94f500004003e0004d0bf000040e800d7
:1034700004f0b7000800370003d0bf000004e000ec
:103480000400320010c0b30005f0b70003d0bf0045
:1034900007f0b7000370ef001d0007003b000700b6
:1034a0000080fa00000006000000fa009011800081
:1034b000620060000000e000010032003222a9003a
:1034c00090118000610060000000e0000e003200fa
:1034d0000470ef0003d0bf000080fb00b11180003a
:1034e000814078008271210000004100014878008d
:1034f00003d0bf00f24f500003003e0003d0bf00d6
:103500000040e80003f0b7000080fa000000060069
:103510000000fa0002d0bf000004e00018003200f2
:103520009111800000202000008060000000e00079
:1035300014003a0001d0bf000080fb00218421006c
:1035400000804000104078000080fb00a01188003f
:1035500001d0bf00ea4f500004003e0001d0bf0080
:103560000040e80001f0b700010037000170ef00f3
:1035700002d0bf000040e90002f0b70001003700b0
:103580000170ef000080fa00000006000000fa0061
:1035900005d0bf000004e000030032000570ef001a
:1035a00010c0b30013f0b7000080fa00000006005e
:1035b0000000fa0006d0bf000080fb00cf80de00d4
:1035c000f402200005002000840f5000858f580071
:1035d00049033e00000601002f0037003700370086
:1035e00050003700820037009f0037004203370049
:1035f00041033700400337003f0337003e033700e5
:10360000330337003c0337003b0337003a033700ee
:1036100039033700380337003703370036033700e4
:10362000350337003403370094013700e1013700d8
:10363000310337003003370099023700e1023700c9
:103640002d0337002c033700ef00370078013700d7
:103650004c0237007f02370027033700260337006c
:1036600025033700240337002303370022033700e4
:10367000e3013700300237001f0337001e03370015
:103680001d0337001c0337001b0337001a033700e4
:10369000e7023700fb023700358ea90005d0bf00d6
:1036a0000004e0001303320006d0bf000040e80031
:1036b00006f0b7000570ef000f033700807121009e
:1036c0009040780046d0bf0080cf500013003a00f1
:1036d0006104210091407800208421000148780095
:1036e00010c0b30013f0b70006d0bf000040e800e0
:1036f00006f0b700807121004080880007d0bf002d
:1037000000c0e9000af0b7000080eb0040828800aa
:1037100030c0b3000bf0b700f70237000670ef00bf
:10372000f50237000ad0bf008080fb008100ea006c
:10373000cf08de00814078000040e9000af0b700c1
:103740000104e000200032004080800090407800ba
:103750000181fb0041828000810069004182880074
:103760000000e8004080880080c0b3000ef0b70081
:103770001100370040828000610060000040780046
:103780000004e00006003200408280008000d1008a
:1037900010002a0000806800408288000300370083
:1037a000408280000000d100408288000ed0bf001f
:1037b0000040e9000ef0b7000ed0bf000004e000aa
:1037c000ecff3a00cc0237004082800000407800d5
:1037d0000df0b700408280004800de000040780015
:1037e0000cf0b7000bd0bf0006f0b700c2023700e4
:1037f00007d0bf000080fb000080e900817121003c
:1038000000804000904078000dd0bf0080cf500075
:1038100013003a0007d0bf000080fb000000e90061
:103820008171210000804000904078000cd0bf00e2
:1038300080cf50000a003a000dd0bf0053f0b7000f
:103840000cd0bf0052f0b70006d0bf000040e80027
:1038500006f0b70010c0b30012f0b700a6023700a0
:103860000670ef00a402370090712100104078002c
:103870000080fb006101b9000080eb008080eb005c
:103880000200400083804800a202200003002000c4
:10389000820f5000838f580056003e000006010042
:1038a0002a0037002c0037002e0037003000370088
:1038b00032003700340037004e0037003500370043
:1038c0004c0037004b003700350037004900370007
:1038d0004800370047003700340037003600370013
:1038e00038003700430037004200370041003700fe
:1038f0004000370036003700380037003d00370001
:103900003c0037003b0037003a00370039003700f1
:1039100038003700370037003600370035003700f1
:1039200034003700330037003200370031003700f1
:10393000300037002f0037002e0037002d003700f1
:103940002c0037002b0037002700370040c1b300a0
:1039500006f0b7002a00370060c1b30006f0b700d8
:103960002700370080c1b30006f0b70024003700fd
:10397000a0c1b30006f0b70021003700c0c1b300fa
:1039800006f0b7001e003700e0c1b30006f0b70034
:103990001b00370000c2b30006f0b7001800370064
:1039a00020c2b30006f0b7001500370040c2b300d4
:1039b00006f0b7001200370060c2b30006f0b7008f
:1039c0000f00370080c2b30006f0b7000c003700cc
:1039d000a0c2b30006f0b70009003700c0c2b300b0
:1039e00006f0b70006003700e0c2b30006f0b700eb
:1039f00003003700a0c0b30006f0b70000000000cd
:103a0000358ea8003c0237003084210051c0b3003d
:103a100001487800a0712100904078004084210086
:103a200001487800b0712100904078005084210056
:103a300001487800c0712100904078006084210026
:103a400001487800d07121009040780070842100f6
:103a50000148780010c0b30013f0b700b071210026
:103a60001040780015f0b7001670ef006000b80045
:103a700030bc880041bc880008003700510121009b
:103a80009140780000ceb30000c0400015f0b700b0
:103a900016d0bf000040e80016f0b70015d0bf00f8
:103aa000ff4f5000f5ff3e00d0712100904078009c
:103ab0006078210001487800c071210090407800b2
:103ac000707821000148780034bc800045bc80003b
:103ad00015d0bf000083fb00f003130004003b007f
:103ae0008703ea008720dd000000eb0004003700b8
:103af0008723de000620dd008628dd00818073003c
:103b000030bc880041bc880016d0bf000083fb0099
:103b100016d0bf000080fb00c200dd0060732100f2
:103b200000804000100278009002900030bc8000bd
:103b300041bc80000000720081807200c232dd0052
:103b40006473210004824200008abe000080eb0002
:103b500040bc8800d071210090407800607821003e
:103b600001487800c07121009040780070782100f1
:103b7000014878000800370030bc800041bc80005c
:103b80000000a00030bc880041bc880015d0bf00f8
:103b90000040e90015f0b70015d0bf000004e000b8
:103ba000f5ff3a0016d0bf000083fb0016d0bf001f
:103bb0000080fb00c200dd00607321000080400037
:103bc000100278009002900030bc800041bc800060
:103bd0008403780005027800800278008100780074
:103be0000580630081006200810178000001780097
:103bf0000200be00c231dd0062732100028141007b
:103c00000089be0020c0b30006f0b7002084210068
:103c10004080880060c0b3000af0b7000080eb006d
:103c200040828800d0c1b3000bf0b700b20137006a
:103c3000d100210091407800808421000148780063
:103c4000c100210091407800908421000148780053
:103c500010c0b30013f0b70080c0b30002f0b7008b
:103c600002d0bf000080fb00f400b9008080880013
:103c7000a0c0b30006f0b7009f01370030842100d8
:103c800011c0b300014878004084210021c0b30076
:103c900001487800b071210010407800ff4f5000bb
:103ca0001b003e00b0712100104078008080fb00b6
:103cb000d0712100104078000080fb00008040009f
:103cc000ff0f500025003c00b2b98000c3b980004e
:103cd000b0712100104078000082fb00f002120059
:103ce00004003b008502ea000598de00cf98de0064
:103cf00004003700851add000410de000080720029
:103d00008498de0030bc880041bc88001300370076
:103d1000d2b98000e3b98000b07121001040780072
:103d20000080fb0004fe2f0000024200f00312009e
:103d300004003b008703ea000798de00cf98de000e
:103d400004003700871bdd000410de0000807300d4
:103d50008498de0030bc880041bc8800608280000e
:103d600090407800508421000148780060828000f3
:103d70000000e8009040780060842100014878004d
:103d800010c0b30013f0b70020c0b30006f0b700b6
:103d9000208421004080880050c0b3000af0b700a2
:103da0000080eb004082880050c1b3000bf0b700e8
:103db00051013700d100210091407800708421002a
:103dc00001487800c10021009140780080842100e2
:103dd0000148780010c0b30013f0b70070c0b30002
:103de00002f0b70002d0bf000080fb00f400b90071
:103df00080808800a0c0b30006f0b7003e01370005
:103e00003084210001c1b30001487800a071210075
:103e1000904078004084210001487800b071210072
:103e2000904078005084210001487800c071210042
:103e3000904078006084210001487800d071210012
:103e400090407800708421000148780010c0b300d1
:103e500013f0b700b07121001040780014f0b700e3
:103e60001670ef00240037005182800014d0bf008c
:103e70000081fb0016d0bf000080fb000000410065
:103e8000000040000000e8008080400016d0bf0025
:103e90000080fb00000040006700400082712100ac
:103ea0000000410010407800804878005182800076
:103eb00014d0bf000081fb0016d0bf000080fb00c3
:103ec00000004100000040008080400016d0bf008c
:103ed0000080fb006400400000004000827121006f
:103ee00000004100104078008048780016d0bf00e4
:103ef0000040e80016f0b700d07121009040780033
:103f000016d0bf0080cf5000d7ff3e0020c0b300c6
:103f100006f0b700208421004080880060c0b30014
:103f20000af0b7000080eb004082880070c2b30046
:103f30000bf0b700f0003700d1002100914078006d
:103f40008084210001487800c10021009140780060
:103f5000908421000148780010c0b30013f0b7002e
:103f600080c0b30002f0b70002d0bf000080fb00a9
:103f7000f400b90080808800a0c0b30006f0b7004c
:103f8000dd0037003084210061c0b30001487800b3
:103f9000a071210090407800408421000148780001
:103fa000b0712100904078005084210001487800d1
:103fb000c0712100904078006084210001487800a1
:103fc000d071210090407800708421000148780071
:103fd00010c0b30013f0b700b0712100104078009a
:103fe00014f0b7005182800014d0bf000080fb00a5
:103ff000000040000000e80000804000c171210086
:1040000091407800014878005182800014d0bf00b0
:104010000080fb000000400000804000d1712100c2
:10402000914078000148780020c0b30006f0b70046
:10403000208421004080880060c0b3000af0b700ef
:104040000080eb0040828800f0c1b3000bf0b700a5
:10405000a9003700d1002100914078008084210020
:1040600001487800c100210091407800908421002f
:104070000148780010c0b30013f0b70080c0b3004f
:1040800002f0b70002d0bf000080fb00f400b900ce
:1040900080808800a0c0b30006f0b700960037000b
:1040a0003084210031c0b30001487800d071210074
:1040b000104078000040400080407800408421009b
:1040c000014878004084210010407800634040009f
:1040d00015f0b700b07121001040780014f0b7005f
:1040e0001670ef002500370016d0bf000080fb00df
:1040f00000004000630140005182800014d0bf00e6
:104100008081fb0016d0bf000080fb0000804100d2
:10411000000040000000e80000804000904078006f
:1041200020842100020040000148780016d0bf0022
:104130000080fb000080e8000000400000017800e3
:104140005182800014d0bf008081fb0016d0bf00d8
:104150000080fb0000804100000040000080400023
:10416000904078002084210002004000014878003f
:1041700016d0bf000040e80016f0b700d071210053
:104180009040780016d0bf0080cf5000d6ff3e0090
:1041900010c0b30013f0b70020c0b30006f0b700a2
:1041a000208421004080880015d0bf000af0b700ad
:1041b0000080eb004082880090c1b3000bf0b70094
:1041c0004d00370015d0bf000080fb00d10021005a
:1041d00091407800228421000000410001487800cd
:1041e00015d0bf000080fb000000e800c1002100e6
:1041f00091407800228421000000410001487800ad
:1042000010c0b30013f0b70015d0bf0000c0e80025
:1042100002f0b70002d0bf000080fb00f400b9003c
:1042200080808800a0c0b30006f0b70032003700dd
:10423000907121009040780030842100014878007e
:1042400061042100914078004084210001487800f9
:1042500010c0b30013f0b70020c0b30006f0b700e1
:10426000208421004080880030c0b3000af0b700ed
:104270000080eb0040828800f0c2b3000bf0b70072
:104280001d003700d10021009140780050842100aa
:1042900001487800c100210091407800608421002d
:1042a0000148780010c0b30013f0b70050c0b3004d
:1042b00002f0b70002d0bf000080fb00f400b9009c
:1042c00080808800a0c0b30006f0b7000a00370065
:1042d000808080000000e0000400320080808000c8
:1042e0000000e90080808800030037000670ef00be
:1042f00001003700000000000080fa000000060006
:104300000000fa0010118000620060000000e00070
:10431000010032002222a90010118000610060001b
:104320000000e0000e0032000470ef0003d0bf0078
:104330000080fb00311180008140780082712100f3
:10434000000041000148780003d0bf00f24f500048
:1043500003003e0003d0bf000040e80003f0b700b8
:104360000080fa00000006000000fa0002d0bf0042
:104370000004e0001800320011118000002020002d
:10438000008060000000e00014003a0001d0bf008f
:104390000080fb0021842100008040001040780054
:1043a0000080fb002011880001d0bf00ea4f5000c0
:1043b00004003e0001d0bf000040e80001f0b7005b
:1043c000010037000170ef0002d0bf000040e9009b
:1043d00002f0b700010037000170ef000080fa0022
:1043e000000006000000fa00c5ff070000d0bf0073
:1043f000f34f500004003e0000d0bf000040e80032
:1044000000f0b700110037000070ef0004d0bf00cb
:10441000e94f500004003e0004d0bf000040e80017
:1044200004f0b7000800370003d0bf000004e0002c
:104430000400320010c0b30005f0b70003d0bf0085
:1044400007f0b7000370ef00c7ff070058fc070034
:104450000080fa00000006000000fa0042d0bf0011
:104460000040e80042f0b70042d0bf000080fb00ef
:104470006101b9000080eb008080eb000200400089
:10448000838048000204200003002000820f5000b7
:10449000838f5800d4013e00000601004000370021
:1044a0004300370047003700480037004900370015
:1044b0004d0037004e003700cb013700ca013700ee
:1044c000c9013700c8013700c7013700c6013700ee
:1044d000c5013700c4013700c3013700c2013700ee
:1044e000c1013700c0013700bf013700be013700ee
:1044f000bd013700bc013700bb013700ba013700ee
:10450000b9013700b8013700b7013700b6013700ed
:10451000b5013700b4013700b3013700b2013700ed
:10452000b1013700b0013700af013700ae013700ed
:10453000ad013700ac0137002f00370038003700dd
:1045400055003700760037007e0037009d003700a9
:10455000be003700c6003700e5003700060137000f
:104560000e0137002d0137004e0137009e01370044
:104570009d0137009c0137009b0137009a013700ed
:104580009901370098013700490137006a01370067
:104590006b0137006c0137008d0137008e01370049
:1045a000150ea900340ea900356ea9008e01370042
:1045b000348ea90034aea90024cea90025aea800ef
:1045c00089013700150ea80087013700150ea900d4
:1045d00085013700348ea90034aea90024cea9008d
:1045e00025aea90080013700150ea8007e01370016
:1045f000150ea9007c013700356ea800e07f210070
:10460000104078000004e0000300320042d0bf00f8
:104610000040e80042f0b7004370ef00720137003d
:1046200043d0bf00f34f500016003e0043d0bf0000
:104630000080fb00e17a21000080400010407800fb
:104640003ff0b70043d0bf000040e80043f0b700a0
:104650003fd0bf000080fb004400de000040780037
:1046600040f0b7003fd0bf006f40600041f0b7009e
:10467000b0c3b30042f0b70080c2b30044f0b7004b
:10468000590137004370ef0042d0bf000040e800fe
:1046900042f0b7005401370043d0bf00f34f500041
:1046a0001d003e00e07f2100104078008080fb006c
:1046b00043d0bf000080fb00f509b90082007800fc
:1046c0000080400021f82800008040001040780061
:1046d0003ff0b70043d0bf000040e80043f0b70010
:1046e0003fd0bf000080fb004400de0000407800a7
:1046f00040f0b7003fd0bf006f40600041f0b7000e
:1047000042d0bf000040e90044f0b700b0c3b3009e
:1047100042f0b700340137004370ef003201370038
:1047200000802100104078000004e0000300320007
:1047300042d0bf000040e80042f0b7004370ef00f5
:104740002901370043d0bf00f34f500018003e004e
:1047500043d0bf000080fb008002b000e17a21005e
:1047600000804000104078003ff0b70043d0bf0009
:104770000040e80043f0b7003fd0bf000080fb00de
:104780004400de000040780040f0b7003fd0bf009a
:104790006f40600041f0b70042d0bf000040e90028
:1047a00044f0b700b0c3b30042f0b7000e013700c9
:1047b0004370ef0042d0bf000040e80042f0b70075
:1047c0000901370043d0bf00f34f50001d003e00e9
:1047d00000802100104078008080fb0043d0bf00a3
:1047e0000080fb00f509b9008200780000804000dd
:1047f00021f8280000804000104078003ff0b7000a
:1048000043d0bf000040e80043f0b7003fd0bf00f6
:104810000080fb004400de000040780040f0b7005c
:104820003fd0bf006f40600041f0b70042d0bf00f2
:104830000040e90044f0b700b0c3b30042f0b70055
:10484000e90037004370ef00e7003700f07f2100f8
:10485000104078000004e0000300320042d0bf00a6
:104860000040e80042f0b7004370ef00de00370080
:1048700043d0bf00f34f500018003e0043d0bf00ac
:104880000080fb0074004000e17a210000804000bd
:10489000104078003ff0b70043d0bf000040e80070
:1048a00043f0b7003fd0bf000080fb004400de00b3
:1048b0000040780040f0b7003fd0bf006f4060007c
:1048c00041f0b70042d0bf000040e90044f0b7001b
:1048d000b0c3b30042f0b700c30037004370ef002d
:1048e00042d0bf000040e80042f0b700be003700f1
:1048f00043d0bf00f34f50001d003e00f07f210069
:10490000104078008080fb0043d0bf000080fb0097
:10491000f509b900820078000080400021f82800e5
:1049200000804000104078003ff0b70043d0bf0047
:104930000040e80043f0b7003fd0bf000080fb001c
:104940004400de000040780040f0b7003fd0bf00d8
:104950006f40600041f0b70042d0bf000040e90066
:1049600044f0b700b0c3b30042f0b7009e00370078
:104970004370ef009c003700108021001040780049
:104980000004e0000300320042d0bf000040e80015
:1049900042f0b7004370ef009300370043d0bf00f0
:1049a000f34f500018003e0043d0bf000080fb00d2
:1049b000c003b000e17a2100008040001040780080
:1049c0003ff0b70043d0bf000040e80043f0b7001d
:1049d0003fd0bf000080fb004400de0000407800b4
:1049e00040f0b7003fd0bf006f40600041f0b7001b
:1049f00042d0bf000040e90044f0b700b0c3b300ac
:104a000042f0b700780037004370ef0042d0bf009b
:104a10000040e80042f0b7007300370043d0bf0009
:104a2000f34f50001d003e00108021001040780020
:104a30008080fb0043d0bf000080fb00f509b90077
:104a4000820078000080400021f8280000804000ab
:104a5000104078003ff0b70043d0bf000040e800ae
:104a600043f0b7003fd0bf000080fb004400de00f1
:104a70000040780040f0b7003fd0bf006f406000ba
:104a800041f0b70042d0bf000040e90044f0b70059
:104a9000b0c3b30042f0b700530037004370ef00db
:104aa000510037003e70ef004270ef004e003700bb
:104ab00040d0bf000080fb00610060000040780033
:104ac0000004e00002003200348ea800010037002c
:104ad000348ea90040d0bf000080fb00620060005f
:104ae0000000e0000200320034aea80001003700f0
:104af00034aea90040d0bf000080fb00640060001d
:104b00000000e0000200320024cea80001003700bf
:104b100024cea90040d0bf000080fb0068006000e8
:104b20000000e0000200320025aea8002e00370091
:104b300025aea9002c003700150ea8002a0037006a
:104b4000150ea9002800370041d0bf000080fb00ef
:104b500061006000004078000004e00002003200c4
:104b6000348ea80001003700348ea90041d0bf0068
:104b70000080fb00620060000000e00002003200e4
:104b800034aea8000100370034aea90041d0bf0008
:104b90000080fb00640060000000e00002003200c2
:104ba00024cea8000100370024cea90041d0bf00c8
:104bb0000080fb00680060000000e000020032009e
:104bc00025aea8000800370025aea9000600370072
:104bd000150ea80004003700150ea90044d0bf0030
:104be00042f0b700000000000080fa00000006005c
:104bf0000000fa00356ea900340ea900150ea900b8
:104c0000f0002000f505070030c0b30047000700a2
:104c100050002000f105070030c0b300430007003a
:104c200050002000ed05070030c0b3003f00070032
:104c300050002000e905070020c0b3003b0007003a
:104c400050002000e505070081c2b3000040eb00e2
:104c50001b00070081c0b3000040eb0018000700f4
:104c600011c0b3000040eb001500070061c0b300a5
:104c70000040eb001200070020032000d7050700ca
:104c800081c2b3000040eb000d000700c1c0b300bb
:104c90000040eb000a00070061c0b3000040eb00d9
:104ca0000700070011c0b3000040eb00040007003c
:104cb00050002000c90507000080fa00000006002f
:104cc0000200fa00004f780011479800150ea90065
:104cd000340ea90030002000c00507001e407800f7
:104ce0000004e00002003200356ea8000100370029
:104cf000356ea90030002000b80507001e40900066
:104d00000080fb004400de00004078000700070040
:104d100050002000c20507001e4090006f40600058
:104d2000020007000080fa00000006000200fa00fe
:104d3000004f7800340ea9001e417800f1032100d5
:104d4000824878003fd0bf000080fb006100600017
:104d5000004078000004e00002003200348ea80019
:104d600001003700348ea9003fd0bf000080fb0057
:104d7000620060000000e0000200320034aea800d3
:104d80000100370034aea9003fd0bf000080fb0017
:104d9000640060000000e0000200320024cea800a1
:104da0000100370024cea9003fd0bf000080fb00e7
:104db000680060000000e0000200320025aea8009c
:104dc0000100370025aea90050002000940507001f
:104dd000150ea8005000200091050700150ea9002f
:104de000500020008e0507000080fa000000060039
:104df0000800fa0020479800314798004247980081
:104e0000330798000040eb00004f78002e409000e0
:104e10000080fb00e20f500011003200e20f500052
:104e200003003c00e10f5000060032002100370073
:104e3000e30f500011003200e40f50001600320062
:104e40001c003700be40900000c8b30000c0400006
:104e5000804078000040eb0099ff07001500370004
:104e6000be40900000ccb30000c0400080407800fd
:104e70000040eb0092ff07000e003700be4090009c
:104e800040c9b30000c04000804078000040eb0003
:104e90008bff070007003700be40900040cdb300f5
:104ea00000c04000804078000040eb0084ff070015
:104eb000000000003e0090008000eb0004c3b3003f
:104ec000ce419000a2052100890207000040eb00be
:104ed000004f7800080037001e80fb00a10521006c
:104ee00000804000104078008040780010c0b3007f
:104ef00073ff07001e4fe8001e407800e34f50008c
:104f0000f5ff36000080fa00000006000800fa00f5
:104f1000204798003147980042479800330798008f
:104f20000040eb00004f78002e4090000080fb0016
:104f3000e20f500011003200e20f500003003c006d
:104f4000e10f50000600320021003700e30f50004f
:104f500011003200e40f5000160032001c00370030
:104f6000be40900000c8b30000c040008040780000
:104f70000040eb0052ff070015003700be409000d4
:104f800000ccb30000c04000804078000040eb003f
:104f90004bff07000e003700be40900040c9b30031
:104fa00000c04000804078000040eb0044ff070054
:104fb00007003700be40900040cdb30000c0400065
:104fc000804078000040eb003dff0700000000003b
:104fd0000040eb00004f7800080037001e80fb0007
:104fe000be009000008040001040780080407800b3
:104ff00010c0b30032ff07001e4fe8004e40900083
:105000009e40780080cf5000f4ff39000080fa0005
:045010000000060096
:020000040000fa
:10501400021800002000000080000000541000006e
:105024000200000082000000ffff00006c18000076
:1050340002000000800000001e10000018000000a4
:1050440080000000561000000200000082000000f2
:1050540001000000601800000c0000008200000045
:10506400425553005241200053414800494e00002c
:105074004e100000060000008000000060140000d4
:10508400b8020000820000000000000000000000e0
:105094000000f8008484840084fc00000000000008
:1050a40000000000000000000000000000000400f8
:1050b4000202040004ffff000408100010080400aa
:1050c40080800000000000000000000000000000dc
:1050d40000100800070101000202040000060f008e
:1050e40019190f0006000000000000000000000075
:1050f40000007e0042c2c200427e000000804000e8
:105104000080800000000000000000000000080093
:1051140008040200c27f7f00c201010001010600f1
:105124000f1919000f060000000000000000000025
:10513400000281008180800081860400000000005c
:10514400808000000000000000000000000000005b
:1051540080809f0090f0f000909f800080860f0078
:1051640019190f00060000000000000000000000f4
:1051740080e02000203f3f002020e000800000006d
:10518400000000000000000000000000000000001b
:10519400000000000000000000000000000000000b
:1051a40000000000000000000000000000000000fb
:1051b400005f00000000070000070000147f1400d7
:1051c4007f1424002a7f2a0012231300086462003b
:1051d40036495500225000000503000000001c0061
:1051e40022410000004122001c0008002a1c2a0061
:1051f400080808003e0808000050300000000800bd
:105204000808080008006000600000002010080082
:1052140004023e00514945003e0042007f40000028
:10522400426151004946210041454b0031181400a8
:10523400127f10002745450045393c004a49490082
:10524400300171000905030036494900493606005a
:10525400494929001e003600360000000056360079
:105264000000000008142200411414001414140057
:1052740041221400080002000151090006324900cd
:1052840079413e007e111100117e7f004949490099
:10529400363e4100414122007f414100221c7f00f3
:1052a40049494900417f0900090101003e4141008b
:1052b40051327f00080808007f0041007f41000050
:1052c400204041003f017f0008142200417f40003c
:1052d400404040007f020400027f7f000408100069
:1052e4007f3e410041413e007f09090009063e001e
:1052f400415121005e7f09001929460046494900b1
:1053040049310100017f0100013f400040403f005e
:105314001f204000201f7f00201820007f631400fe
:105324000814630003047800040361005149450034
:10533400430000007f4141000204080010204100a6
:10534400417f0000000402000102040040404000cc
:10535400404000000102040000205400545478002e
:105364007f48440044383800444444002038440012
:1053740044487f0038545400541808007e09010042
:105384000208140054543c007f0804000478000010
:10539400447d400000204000443d0000007f100098
:1053a40028440000417f4000007c04001804780079
:1053b4007c0804000478380044444400387c140019
:1053c4001414080008141400187c7c000804040059
:1053d4000848540054542000043f440040203c003a
:1053e400404020007c1c200040201c003c40300039
:1053f400403c440028102800440c500050503c000d
:10540400446454004c44000008364100000000008d
:105414007f0000000041360008000800082a1c0034
:1054240008081c002a0808005a100000060400009e
:10543400800000003610000008000000800000001a
:10544400221800002000000082000000010000007b
:10545400000a00000000640000000000e8030000ef
:10546400001027000000a0008601000040420f0049
:105474000080960098000000581000000200000010
:1054840080000000ae1700005400000080000000ff
:105494003e100000080000008000000042180000d8
:1054a4001e0000008200000042757300726120003b
:1054b40053414800494e0000000000000000000075
:1054c40000000000000000000000000000000000d8
:1054d4001817000096000000800000000010000073
:1054e4001e000000800000004610000008000000bc
:1054f400820000000100ff00ff361700861700003d
:0455040000000000a3
