:020000040000fa
:080000000002040000000000f2
:020000040000fa
:04000800fe020000f4
:020000040000fa
:04000c0040030000ad
:020000040000fa
:040010008003000069
:020000040000fa
:040014001e030000c7
:020000040000fa
:040018006003000081
:020000040000fa
:04001c0010040000cc
:020000040000fa
:04002000a003000039
:020000040000fa
:0400240010040000c4
:020000040000fa
:0400280010040000c0
:020000040000fa
:04002c0010040000bc
:020000040000fa
:0400300010040000b8
:020000040000fa
:04003400da030000eb
:020000040000fa
:0400380010040000b0
:020000040000fa
:04003c0010040000ac
:020000040000fa
:0400400010040000a8
:020000040000fa
:0400440010040000a4
:020000040000fa
:0400480010040000a0
:020000040000fa
:04004c00100400009c
:020000040000fa
:040050001004000098
:020000040000fa
:040054001004000094
:020000040000fa
:040058001004000090
:020000040000fa
:04005c00100400008c
:020000040000fa
:040060001004000088
:020000040000fa
:040064001004000084
:020000040000fa
:040068001004000080
:020000040000fa
:04006c00100400007c
:020000040000fa
:040070001004000078
:020000040000fa
:040074001004000074
:020000040000fa
:040078001004000070
:020000040000fa
:04007c00100400006c
:020000040000fa
:040080001004000068
:020000040000fa
:040084001004000064
:020000040000fa
:040088001004000060
:020000040000fa
:04008c00100400005c
:020000040000fa
:040090001004000058
:020000040000fa
:040094001004000054
:020000040000fa
:040098001004000050
:020000040000fa
:04009c00100400004c
:020000040000fa
:0400a0001004000048
:020000040000fa
:0400a4001004000044
:020000040000fa
:0400a8001004000040
:020000040000fa
:0400ac00100400003c
:020000040000fa
:0400b0001004000038
:020000040000fa
:0400b4001004000034
:020000040000fa
:0400b8001004000030
:020000040000fa
:0400bc00100400002c
:020000040000fa
:0400c0001004000028
:020000040000fa
:0400c4001004000024
:020000040000fa
:0400c8001004000020
:020000040000fa
:0400cc00100400001c
:020000040000fa
:0400d0001004000018
:020000040000fa
:0400d4001004000014
:020000040000fa
:0400d8001004000010
:020000040000fa
:0400dc00100400000c
:020000040000fa
:0400e0001004000008
:020000040000fa
:0400e4001004000004
:020000040000fa
:0400e8001004000000
:020000040000fa
:0400ec0010040000fc
:020000040000fa
:0400f00010040000f8
:020000040000fa
:0400f40010040000f4
:020000040000fa
:0400f80010040000f0
:020000040000fa
:0400fc0010040000ec
:020000040000fa
:0401000010040000e7
:020000040000fa
:0401040010040000e3
:020000040000fa
:0401080010040000df
:020000040000fa
:04010c0010040000db
:020000040000fa
:0401100010040000d7
:020000040000fa
:0401140010040000d3
:020000040000fa
:0401180010040000cf
:020000040000fa
:04011c0010040000cb
:020000040000fa
:0401200010040000c7
:020000040000fa
:0401240010040000c3
:020000040000fa
:0401280010040000bf
:020000040000fa
:04012c0010040000bb
:020000040000fa
:0401300010040000b7
:020000040000fa
:0401340010040000b3
:020000040000fa
:0401380010040000af
:020000040000fa
:04013c0010040000ab
:020000040000fa
:0401400010040000a7
:020000040000fa
:0401440010040000a3
:020000040000fa
:04014800100400009f
:020000040000fa
:04014c00100400009b
:020000040000fa
:040150001004000097
:020000040000fa
:040154001004000093
:020000040000fa
:04015800100400008f
:020000040000fa
:04015c00100400008b
:020000040000fa
:040160001004000087
:020000040000fa
:040164001004000083
:020000040000fa
:04016800100400007f
:020000040000fa
:04016c00100400007b
:020000040000fa
:040170001004000077
:020000040000fa
:040174001004000073
:020000040000fa
:04017800100400006f
:020000040000fa
:04017c00100400006b
:020000040000fa
:040180001004000067
:020000040000fa
:040184001004000063
:020000040000fa
:04018800100400005f
:020000040000fa
:04018c00100400005b
:020000040000fa
:040190001004000057
:020000040000fa
:040194001004000053
:020000040000fa
:04019800100400004f
:020000040000fa
:04019c00100400004b
:020000040000fa
:0401a0001004000047
:020000040000fa
:0401a4001004000043
:020000040000fa
:0401a800100400003f
:020000040000fa
:0401ac00100400003b
:020000040000fa
:0401b0001004000037
:020000040000fa
:0401b4001004000033
:020000040000fa
:0401b800100400002f
:020000040000fa
:0401bc00100400002b
:020000040000fa
:0401c0001004000027
:020000040000fa
:0401c4001004000023
:020000040000fa
:0401c800100400001f
:020000040000fa
:0401cc00100400001b
:020000040000fa
:0401d0001004000017
:020000040000fa
:0401d4001004000013
:020000040000fa
:0401d800100400000f
:020000040000fa
:0401dc00100400000b
:020000040000fa
:0401e0001004000007
:020000040000fa
:0401e4001004000003
:020000040000fa
:0401e80010040000ff
:020000040000fa
:0401ec0010040000fb
:020000040000fa
:0401f00010040000f7
:020000040000fa
:0401f40010040000f3
:020000040000fa
:0401f80010040000ef
:020000040000fa
:0401fc0010040000eb
:020000040000fa
:0402000010040000e6
:020000040000fa
:0402040010040000e2
:020000040000fa
:0402080010040000de
:020000040000fa
:04020c0010040000da
:020000040000fa
:0402100010040000d6
:020000040000fa
:0402140010040000d2
:020000040000fa
:0402180010040000ce
:020000040000fa
:04021c0010040000ca
:020000040000fa
:0402200010040000c6
:020000040000fa
:0402240010040000c2
:020000040000fa
:0402280010040000be
:020000040000fa
:04022c0010040000ba
:020000040000fa
:0402300010040000b6
:020000040000fa
:0402340010040000b2
:020000040000fa
:0402380010040000ae
:020000040000fa
:04023c0010040000aa
:020000040000fa
:0402400010040000a6
:020000040000fa
:0402440010040000a2
:020000040000fa
:04024800100400009e
:020000040000fa
:04024c00100400009a
:020000040000fa
:040250001004000096
:020000040000fa
:040254001004000092
:020000040000fa
:04025800100400008e
:020000040000fa
:04025c00100400008a
:020000040000fa
:040260001004000086
:020000040000fa
:040264001004000082
:020000040000fa
:04026800100400007e
:020000040000fa
:04026c00100400007a
:020000040000fa
:040270001004000076
:020000040000fa
:040274001004000072
:020000040000fa
:04027800100400006e
:020000040000fa
:04027c00100400006a
:020000040000fa
:040280001004000066
:020000040000fa
:040284001004000062
:020000040000fa
:04028800100400005e
:020000040000fa
:04028c00100400005a
:020000040000fa
:040290001004000056
:020000040000fa
:040294001004000052
:020000040000fa
:04029800100400004e
:020000040000fa
:04029c00100400004a
:020000040000fa
:0402a0001004000046
:020000040000fa
:0402a4001004000042
:020000040000fa
:0402a800100400003e
:020000040000fa
:0402ac00100400003a
:020000040000fa
:0402b0001004000036
:020000040000fa
:0402b4001004000032
:020000040000fa
:0402b800100400002e
:020000040000fa
:0402bc00100400002a
:020000040000fa
:0402c0001004000026
:020000040000fa
:0402c4001004000022
:020000040000fa
:0402c800100400001e
:020000040000fa
:0402cc00100400001a
:020000040000fa
:0402d0001004000016
:020000040000fa
:0402d4001004000012
:020000040000fa
:0402d800100400000e
:020000040000fa
:0402dc00100400000a
:020000040000fa
:0402e0001004000006
:020000040000fa
:0402e4001004000002
:020000040000fa
:0402e80010040000fe
:020000040000fa
:0402ec0010040000fa
:020000040000fa
:0402f00010040000f6
:020000040000fa
:0402f40010040000f2
:020000040000fa
:0402f80010040000ee
:020000040000fa
:100400004f0421000eff22000e01880000000000b2
:10041000000020000000e000020032000001200087
:100420002002880014000700ff0007000000e00021
:1004300003003a00c0b02000010020000200370095
:100440000000200001002000810f70000100320038
:100450000f000700000020000000e0000200320052
:100460000000020000000000700702000000000011
:100470000040da000000fe00200020000000e00044
:1004800002003200100020009001880000000600e9
:10049000a1028800800478000000eb001f003700f4
:1004a000e284440054a0b4009905ba00e2844400f8
:1004b00054a0b4009906ba00e284440054a0b400e9
:1004c0000006eb00476fde00fd07b200ae018800ba
:1004d000636ce10003003a000ad801000000eb0061
:1004e0000e003700606ce10008003a00004deb00a0
:1004f0000a05e800020039003420ec000af0a000f0
:100500008b05e900f9ff3e00040037006168e10057
:10051000010032000086eb000b00070019c7ba008b
:100520000e04e0001905ba0003003a000a00e000da
:10053000dbff3a0000000600fe07b200ae028800b2
:100540008a047800f5ff37000cd0a300e20f4d00bd
:100550001c003b0089027800354dba000a05e8000e
:10056000020039003420ec000af0a0008b05e900fd
:100570000f003200254dba000a05e80002003900dc
:100580003420ec000af0a0008b05e90008003200de
:100590000c00e0000600320015cdba000a05e800a4
:1005a000020039003420ec000af0a0008b05e900bd
:1005b0008984e80054a0b4000b00e000e2ff3a0098
:1005c000000006009902ba00055d78008b05e9007d
:1005d000f7ff3200c82ade00055d78008b05e900d0
:1005e000f3ff32000c00e000f1ff320019ddba0029
:1005f000eeff370000000000000000003600f800a9
:10060000809fbe00829fbe00849fbe00869fbe006a
:100610000000fa00c028a9000000eb001304070046
:100620000080fa004f03be004f02be004f01be0023
:100630004f00be003600f900004006003600f8000a
:10064000809fbe00829fbe00849fbe00869fbe002a
:100650000000fa000a040700c048a90010002000aa
:10066000020407000080fa004f03be004f02be00e4
:100670004f01be004f00be003600f90000400600ea
:100680003600f800809fbe00829fbe00849fbe009f
:10069000869fbe000000fa00c068a900200020006c
:1006a000f20307000080fa004f03be004f02be00b5
:1006b0004f01be004f00be003600f90000400600aa
:1006c0003600f800809fbe00829fbe00849fbe005f
:1006d000869fbe000000fa00c088a90030002000fc
:1006e000e20307000080fa004f03be004f02be0085
:1006f0004f01be004f00be003600f900004006006a
:100700003600f800809fbe00829fbe00849fbe001e
:10071000869fbe000000fa00c608a90070002000f5
:10072000d20307000080fa004f03be004f02be0054
:100730004f01be004f00be003600f9000040060029
:100740003600f800809fbe00829fbe00849fbe00de
:10075000869fbe000000fa002146800000102000a5
:10076000008060000000e00003003200c508a9001e
:10077000c0002000bd03070020468000700060001c
:100780000000e00003003200c488a900a00020009f
:10079000b603070020468000610060000000e00012
:1007a00003003200c408a900b0002000af03070016
:1007b000ffff37003600f800809fbe00829fbe001a
:1007c000849fbe00869fbe000000fa00008080006b
:1007d0000000e00002003200008080000000010004
:1007e00030042100104078008040e80030042100ef
:1007f000014878002004210011c0b30001487800ae
:100800000068a9000080fa004f03be004f02be003e
:100810004f01be004f00be003600f9000040060048
:0c0820000040da000000fe0000000500af
:020000040000fa
:10082c000000fa000021ef00309c20001008880026
:10083c000000280020088800008080000000e000f4
:10084c0002003a00e0462000750107000068a9008c
:10085c002068a800200421008040eb0001487800ab
:10086c000080fa00000006000200fa00000f780079
:10087c009e00780011088800200421008040eb00c5
:10088c00014878000080fa00000006000000fa0021
:10089c00100880000080fa00000006000200fa0038
:1008ac00000f78009e0078000108880020042100c9
:1008bc008040eb00014878000080fa000000060040
:1008cc000000fa00000880000080fa00000006001a
:1008dc000000fa00108080000000e8001080880002
:1008ec00108080006101b8000080eb008080eb007c
:1008fc000200400083804800120320000300200007
:10090c00820f5000838f580041013e000006010009
:10091c00310037003d0037003d0137003c01370006
:10092c003b0137003a0137003901370038013700f5
:10093c0037013700670037006a0037003401370091
:10094c0033013700320137003101370030013700f5
:10095c002f0137002e0137002d013700930037008f
:10096c00960037002a01370029013700280137008b
:10097c0027013700260137002501370024013700f5
:10098c0023013700bf003700c200370020013700b9
:10099c001f0137001e0137001d0137001c013700f5
:1009ac001b0137001a01370019013700eb00370023
:1009bc00ee0037001601370015013700140137001f
:1009cc0013013700120137001101370010013700f5
:1009dc000f01370009013700350ea900352ea9008b
:1009ec0035cea900244ea90031eea800308ea80007
:1009fc0030aea80020cea80021aea800042ea9007d
:100a0c000081800010808800010137001071800087
:100a1c004d00de006140600004f0b70004d0bf0060
:100a2c000004e0000f003a00a10021009140780082
:100a3c00f0c4b30080cf500005003e000ad0bf00c8
:100a4c000040e8000af0b7000570ef000e00370018
:100a5c0010c0b30005f0b7000a70ef000b70ef0088
:100a6c00090037000bd0bf00e94f500004003e00d6
:100a7c000bd0bf000040e8000bf0b70002003700bd
:100a8c000570ef000a70ef0005d0bf000004e00015
:100a9c0003003200e08080000000e800e080880065
:100aac00042ea80031eea900308ea90030aea900aa
:100abc0020cea90021aea900350ea800352ea90024
:100acc0035cea900244ea90018d0bf00380107006c
:100adc00cf0037000230ef00a0002000008188001a
:100aec00cb003700107180004600de0061406000d2
:100afc0004f0b70004d0bf000004e0000f003a007f
:100b0c00c100210091407800f0c4b30080cf5000a8
:100b1c0005003e000cd0bf000040e8000cf0b70010
:100b2c000670ef000e00370010c0b30006f0b700df
:100b3c000c70ef000d70ef00090037000dd0bf00f6
:100b4c00e94f500004003e000dd0bf000040e8000b
:100b5c000df0b700020037000670ef000c70ef00cc
:100b6c0006d0bf000004e00003003200e0808000eb
:100b7c000000e900e0808800042ea80031eea900f6
:100b8c00308ea90030aea90020cea90021aea9005c
:100b9c00350ea900352ea80035cea900244ea9008b
:100bac0019d0bf0002010700990037000230ef0096
:100bbc004001200000818800950037009071800072
:100bcc004500de006140600004f0b70004d0bf00b7
:100bdc000004e0000f003a00e10021009140780091
:100bec00f0c4b30080cf500005003e000ed0bf0013
:100bfc000040e8000ef0b7000770ef000e00370061
:100c0c0010c0b30007f0b7000e70ef000f70ef00cc
:100c1c00090037000fd0bf00e94f500004003e0020
:100c2c000fd0bf000040e8000ff0b7000200370003
:100c3c000770ef000e70ef0007d0bf000004e0005b
:100c4c0003003200e08080006a004000e0808800f1
:100c5c00042ea80031eea900308ea90030aea900f8
:100c6c0020cea90021aea900350ea900352ea90071
:100c7c0035cea800244ea9001ad0bf00cc00070026
:100c8c00630037000230ef00e00120000081880093
:100c9c005f003700907180004400de00614060000e
:100cac0004f0b70004d0bf000004e0000f003a00cd
:100cbc000101210091407800f0c4b30080cf5000b6
:100ccc0005003e0010d0bf000040e80010f0b70057
:100cdc000870ef000e00370010c0b30008f0b7002a
:100cec001070ef001170ef000900370011d0bf0039
:100cfc00e94f500004003e0011d0bf000040e80056
:100d0c0011f0b700020037000870ef001070ef0010
:100d1c0008d0bf000004e00003003200e080800037
:100d2c006a005000e0808800042ea80031eea90073
:100d3c00308ea90030aea90020cea90021aea900aa
:100d4c00350ea900352ea90035cea900244ea800d9
:100d5c001bd0bf00960007002d0037000230ef00bb
:100d6c0080022000008188002900370090718000eb
:100d7c004f00de000040780004f0b70004d0bf0044
:100d8c000004e0000f003a0021012100914078009e
:100d9c00f0c4b30080cf500005003e0012d0bf005d
:100dac000040e80012f0b7000970ef000e003700a9
:100dbc0010c0b30009f0b7001270ef001370ef0011
:100dcc000900370013d0bf00e94f500004003e006b
:100ddc0013d0bf000040e80013f0b700020037004a
:100dec000970ef001270ef0009d0bf000004e000a2
:100dfc00060032001c30ef00050037000230ef0017
:100e0c001000200000818800010037000000000065
:100e1c00e08080003a0007000080fa000000060025
:100e2c000200fa00000f78002068a9009e007800ec
:100e3c00018088002068a8000080fa0000000600ed
:100e4c000000fa00200421008040eb0001487800eb
:100e5c002068a80005e1a8000080fa000000060048
:100e6c000000fa0005e1a9002068a9000080fa0042
:100e7c00000006000200fa0020042100104f780048
:100e8c001e4078000004e000030032002004210022
:100e9c008040eb00014878001e4078000080fa008a
:100eac00000006000000fa00300421001040780019
:100ebc000080fb000080fa00000006000000fa0031
:100ecc00300421008040eb00014878000080fa00db
:100edc00000006000000fa00c2010700042ea80062
:100eec000100370000000000e1808000f07022005b
:100efc00808f5000fbff36001c30ef00faff3700ec
:100f0c000200fa00000f78001870ef001970ef0063
:100f1c001a70ef001b70ef00f07022009e0078003a
:100f2c00808f500020003e000500370081c12f004b
:100f3c001e8f400018d0bf000040e80018f0b7002a
:100f4c00703e20009e007800808f5000f7ff3e001e
:100f5c0005003700c1f92f001e8f400019d0bf00cb
:100f6c000040e80019f0b700300620009e00780021
:100f7c00808f5000f7ff3e00050037009e00780080
:100f8c006a8f50001ad0bf000040e8001af0b7007a
:100f9c001e007800e90f5000f8ff3e001e0078009c
:100fac00004078001bf0b7000080fa00000006003b
:100fbc000200fa00004f78001e80fb00cf80de009c
:100fcc009200200003002000820f5000838f5800f5
:100fdc001f003e0000060100090037000a00370020
:100fec000b0037000c0037000d0037000e003700e7
:100ffc000f003700100037001100370012003700c7
:10100c0015000700120037001e0007001000370003
:10101c00270007000e003700300007000c003700d7
:10102c00390007000a0037004200070008003700ab
:10103c004b0007000600370054000700040037007f
:10104c005d0007000200370066000700000000008a
:10105c000080fa00000006000000fa00240ea80030
:10106c00246ea80034cea80035eea900348ea8005a
:10107c0034aea90024cea80025aea8000080fa004a
:10108c00000006000000fa00240ea800246ea9003f
:10109c0034cea90035eea900348ea80034aea900d8
:1010ac0024cea90025aea9000080fa00000006009d
:1010bc000000fa00240ea800246ea80034cea9006b
:1010cc0035eea800348ea90034aea90024cea800b9
:1010dc0025aea8000080fa00000006000000fa000f
:1010ec00240ea800246ea80034cea90035eea8006a
:1010fc00348ea80034aea90024cea90025aea800d9
:10110c000080fa00000006000000fa00240ea8007f
:10111c00246ea90034cea80035eea800348ea800a9
:10112c0034aea90024cea90025aea9000080fa0097
:10113c00000006000000fa00240ea900246ea8008e
:10114c0034cea80035eea800348ea80034aea90029
:10115c0024cea90025aea8000080fa0000000600ed
:10116c000000fa00240ea900246ea80034cea800ba
:10117c0035eea800348ea80034aea90024cea80009
:10118c0025aea8000080fa00000006000000fa005e
:10119c00240ea800246ea80034cea90035eea900b8
:1011ac00348ea80034aea90024cea90025aea90027
:1011bc000080fa00000006000000fa00240ea800cf
:1011cc00246ea80034cea80035eea800348ea800fa
:1011dc0034aea90024cea80025aea8000080fa00e9
:1011ec00000006000000fa00240ea800246ea800df
:1011fc0034cea80035eea800348ea80034aea90079
:10120c0024cea90025aea8000080fa00000006003c
:10121c000000fa00003a80000080fa00000006008e
:10122c000200fa00faff0700000f78001e00780099
:10123c00240007000004e000020032000000280037
:10124c00710007001e0078002a0007000004e0006f
:10125c0002003200000024006b0007001e00780022
:10126c00320007000004e0000200320000202000e1
:10127c00650007001e0078003a0007000004e0003b
:10128c0002003200000820005f0007001e007800fa
:10129c00420007000004e0000200320000042000bd
:1012ac00590007001e0078004a0007000004e00007
:1012bc000200320000012000530007000080fa00f9
:1012cc00000006000400fa00100798000040eb0034
:1012dc00004f78001e0090000000e00002003d006e
:1012ec0010c0b300004f78001e4078000080fa0058
:1012fc00000006000400fa00100798000040eb0004
:10130c00004f78009e0090000000240000806000d8
:10131c000000e0000200320010c0b300004f780063
:10132c001e4078000080fa00000006000400fa005d
:10133c00100798000040eb00004f78009e009000d2
:10134c0000202000008060000000e000020032005d
:10135c0010c0b300004f78001e4078000080fa00e7
:10136c00000006000400fa00100798000040eb0093
:10137c00004f78009e009000000820000080600064
:10138c000000e0000200320010c0b300004f7800f3
:10139c001e4078000080fa00000006000400fa00ed
:1013ac00100798000040eb00004f78009e00900062
:1013bc0000042000008060000000e0000200320009
:1013cc0010c0b300004f78001e4078000080fa0077
:1013dc00000006000400fa00100798000040eb0023
:1013ec00004f78001e009000700060000000e000cc
:1013fc000200320010c0b300004f78001e4078008d
:10140c000080fa00000006000200fa00000f7800cd
:10141c009e80ea00003a800000806000003a88005c
:10142c000080fa00000006000000fa004027ef00e0
:10143c000080fa00000006000000fa00701523007e
:10144c00203a88004827ef004e27ef00600c200060
:10145c00303a880000742200803a88004c27ef0054
:10146c006027ef006227ef006427ef006a27ef0088
:10147c006c27ef006e27ef00320020008007200061
:10148c00a10920003374200080497800814978003c
:10149c0082497800120020006004200071052000b1
:1014ac0023742000804978008149780082497800b3
:1014bc0000000000103a8000610060000000e000b5
:1014cc00fcff3a0000000000113a800000022000ee
:1014dc00008060000000e000fbff32000080fa009a
:1014ec00000006000000fa00803a80004e00de008a
:1014fc00614060000080fb0000f0a7000000ea00e3
:10150c000000ea004f00de00004078000080fa0086
:10151c00000006000000fa00042eef00142eef006d
:10152c00242eef00342eef00d00120000070880034
:10153c00b0ff2f008070880020fb2d000071880008
:10154c00f0882300807188000c2eef001c2eef0019
:10155c002c2eef003c2eef000a2eef001a2eef007f
:10156c00900422005071880000072800d071880078
:10157c00062eef00162eef00262eef00362eef0073
:10158c005000200070708800d06e2000f070880031
:10159c0020e321007071880040082200f07188005f
:1015ac000080fa00000006000200fa00000f78002c
:1015bc0021028000200f2000008060001e007000bf
:1015cc00200288000080fa00000006000000fa00eb
:1015dc00c3e8a80000000000000000000080fa0032
:1015ec00000006000000fa00caff070028000700f0
:1015fc0091ff07008afc0700f4ff0700000220009f
:0c160c00e9ff07000080fa000000060063
:020000040000fa
:101618002210000020000000800000001e100000c2
:101628000200000082000000ffff000042100000de
:1016380002000000800000000010000014000000fc
:10164800800000002010000002000000820000005e
:1016580001000000141000000a00000080000000d3
:04166800000000007e
:020000040000fa
:10166c000200fa00000f78009e007800f1808800dc
:10167c00ffff37000000fa002002210080077800ed
:10168c00a0032100000188000080fa000000060081
:10169c000000fa0001428000f0ff2800008060008a
:1016ac0000c0a000004288000080fa000000060084
:020000040000fa
:020000040001f9
:045f0000ffffff00a0
:020000040000fa
:020000040001f9
:045f2000ff1f00005f
:020000040000fa
:020000040001f9
:045f300078ffff00f7
:020000040000fa
:020000040001f9
:045f380078ffff00ef
:020000040000fa
:020000040001f9
:045f40009fffff00c0
:020000040000fa
:020000040001f9
:045f5000ddffff0072
:020000040000fa
:020000040001f9
:045f5800ffffff0048
:020000040000fa
:020000040001f9
:045f6000ffffff0040
:020000040000fa
:020000040001f9
:045ff800ff0f000097
:020000040000fa
:020000040100f9
:04200000ffffff00df
:00000001FF
